:020000040800F2
:10000000000002208D030008D1030008D10300087E
:10001000D1030008D1030008D1030008000000004C
:10002000000000000000000000000000D1030008F4
:10003000D103000800000000D1030008D10300082C
:10004000D1030008D1030008D1030008D103000840
:10005000D1030008D1030008D1030008D103000830
:10006000D1030008D1030008D1030008D103000820
:10007000D1030008D1030008D1030008D103000810
:10008000D1030008D1030008D1030008D103000800
:10009000D1030008D1030008D1030008D1030008F0
:1000A000D1030008D1030008D1030008D1030008E0
:1000B000D1030008D1030008D1030008D1030008D0
:1000C000D1030008D1030008D1030008D1030008C0
:1000D000D1030008D1030008D1030008D1030008B0
:1000E000D1030008D1030008D1030008D1030008A0
:1000F000D1030008D1030008D1030008D103000890
:10010000D1030008D1030008D1030008D10300087F
:10011000D1030008D1030008D1030008D10300086F
:10012000D1030008D1030008D1030008D10300085F
:10013000D1030008D1030008D1030008D10300084F
:10014000D1030008D1030008D1030008D10300083F
:10015000D1030008D1030008D1030008D10300082F
:10016000D1030008D1030008D1030008D10300081F
:10017000D1030008D1030008D1030008D10300080F
:08018000D1030008D1030008BF
:1001880010B5054C237833B9044B13B10448AFF3C9
:1001980000800123237010BD000000200000000033
:1001A8001C06000808B5034B1BB103490348AFF30D
:1001B800008008BD00000000040000201C060008A4
:1001C80008B511491148114D114C202200F084F84E
:1001D8000D490F48402200F07FF800F035F8284616
:1001E80000F05AF8204600F057F84FF4FA7000F083
:1001F80047F8284600F060F8204600F05DF84FF414
:10020800FA7000F03DF8EAE7001002401C000020F8
:100218002800002030B5044685B00D460220012193
:1002280000F0A2F91023ADF806300648ADF80450E6
:10023800002301A90294ADF80C3000F0A1F905B033
:1002480030BD00BF0004004008B553216320FFF70C
:10025800E1FF002008BD000010B5084CE062E36A29
:1002680063620121204600F0C9F9616A0029FCD1C6
:10027800BDE81040014800F0C1B900BF00040040CB
:1002880038B504460025A54200D138BD4FF47A7030
:10029800FFF7E2FF0135F6E710B5044648B1437AA7
:1002A8003BB18188006800F04FF9012323720020D8
:1002B80010BD4FF0FF30FBE710B5044640B1437A5C
:1002C80033B18188006800F03DF90020207210BD2C
:1002D8004FF0FF30FBE7000073B50C4616460546A5
:1002E80000283CD01F4B994215D10121084600F047
:1002F8002FF94FF480732B811B4B69462046C5E9C3
:100308000046CDE9006300F0DBF82846FFF7D4FF8C
:10031800002002B070BD154B994202D10121022084
:10032800E5E7134B994202D101210420DFE7114B85
:10033800994202D101210820D9E70F4B994202D1F5
:1003480001211020D3E70D4B994202D10121202031
:10035800CDE70B4B994202D101214020C7E74FF06E
:10036800FF30D6E70000024001030001000402400C
:1003780000080240000C0240001002400014024035
:1003880000180240002103E00A4B5B584350043137
:1003980009480A4B42189A42F6D3094A02E0002358
:1003A80042F8043B074B9A42F9D300F00FF8FFF7E5
:1003B80007FF70473C0600080000002000000020EE
:1003C8000000002034000020FEE70000364AD2F882
:1003D800883043F47003C2F88830344B1A6800211F
:1003E80042F001021A6099601A6822F0847222F4BD
:1003F80080321A602E4A5A601A6882B022F480222B
:100408001A60D960009101911A6842F480321A602A
:100418001A6802F400320192009A01320092019A9D
:100428001AB9009AB2F5A04FF2D11B6813F4003341
:1004380018BF01230193019B012B2ED11B4B1D4992
:100448001A6C42F080521A640A6842F440420A6008
:100458009A689A609A6842F400429A609A6842F4EC
:10046800A0529A60144A5A601A6842F080721A6060
:100478001A689201FCD5114A40F2057111609A6818
:1004880022F003029A609A6842F002029A60074AD0
:10049800936803F00C03082BFAD1034B4FF000626A
:1004A8009A6002B0704700BF00ED00E000380240DB
:1004B800103000240070004008544007003C0240FF
:1004C800F0B50022012603250B6806FA02F737EA81
:1004D800030333D10368540005FA04FE23EA0E032C
:1004E80003600B796FEA0E0CD0F800E0A34043EAF2
:1004F8000E0303600B79013B012B14D883680CEAC7
:10050800030383604B79D0F808C0A34043EA0C0387
:100518008360436823EA070343608B794768934005
:100528009BB23B434360C36805FA04F723EA070319
:10053800C360CB79C768A3403B43C3600132102A2C
:10054800C2D1F0BD81617047090481617047000024
:10055800044B1A6B11B110431863704722EA00006C
:10056800FAE700BF00380240044B1A6C11B110437F
:100578001864704722EA0000FAE700BF003802401A
:100588001C4A038890429BB212D002F580629042C6
:100598000ED0B0F1804F0BD0A2F58032904207D038
:1005A80002F58062904203D002F58062904203D146
:1005B8004A8823F0700313430F4A904208D002F58B
:1005C800806290421FBF23F440730A899BB2134391
:1005D80003804B68C3620B880385064B984203D09F
:1005E80003F58063984201D18B7A038601238382C5
:1005F800704700BF0000014000100040038821B18F
:100608009BB243F001030380704723F001031B04EE
:100618001B0CF8E7F8B500BFF8BC08BC9E4670474D
:0C062800F8B500BFF8BC08BC9E46704747
:04063400AD0100080C
:04063800890100082C
:040000050800038D5F
:00000001FF
