:020000040800F2
:100000000000022061470008A5470008A547000836
:10001000A5470008A5470008A54700080000000004
:10002000000000000000000000000000A5470008DC
:10003000A547000800000000A5470008A5470008E4
:10004000A5470008A5470008A5470008A5470008E0
:10005000A5470008A5470008A5470008A5470008D0
:10006000A5470008A5470008A5470008A5470008C0
:10007000A5470008A5470008A5470008A5470008B0
:10008000A5470008A5470008A5470008A5470008A0
:10009000A5470008A5470008A5470008A547000890
:1000A000A5470008A5470008A5470008A547000880
:1000B000A5470008A5470008A5470008A547000870
:1000C000A5470008A5470008A5470008A547000860
:1000D000A5470008A5470008A5470008A547000850
:1000E000A5470008A5470008A5470008A547000840
:1000F000A5470008A5470008A5470008A547000830
:10010000A5470008A5470008A5470008A54700081F
:10011000A5470008A5470008A5470008A54700080F
:10012000A5470008A5470008A5470008A5470008FF
:10013000A5470008A5470008A5470008A5470008EF
:10014000A5470008A5470008A5470008A5470008DF
:10015000A5470008A5470008A5470008A5470008CF
:10016000A5470008A5470008A5470008A5470008BF
:10017000A5470008A5470008A5470008A5470008AF
:08018000A5470008A54700088F
:1001880010B5054C237833B9044B13B10448AFF3C9
:1001980000800123237010BD14000020000000001F
:1001A800EC50000808B5034B1BB103490348AFF3F3
:1001B800008008BD0000000018000020EC50000876
:1001C80080B500AF01214FF4001004F04BFF01216E
:1001D800022004F007FF00BF80BD000080B582B098
:1001E80002AFFFF7EDFF00F01BFD00F089F80020DB
:1001F80004F0E2F8074B0193102300931023102218
:100208000021002004F0D4F904F094FA04F09AFADA
:10021800FEE700BF0451000880B483B000AF034676
:10022800FB80FB889BB2FB80044BFA8892B21A8051
:1002380000BF0C37BD465DF8047B7047FEFF0760C2
:1002480080B483B000AF0346FB80FB889BB2FB8081
:10025800044BFA8892B25A8000BF0C37BD465DF84D
:10026800047B7047FEFF076080B483B000AF054B86
:100278005B88FB80FB889BB218460C37BD465DF84F
:10028800047B7047FEFF076080B483B000AF03466D
:100298000A46FB801346BB80064BFA8892B21A8046
:1002A800044BBA8892B25A8000BF0C37BD465DF83D
:1002B800047B7047FEFF076080B582B000AF03463D
:1002C800FB80FB889BB21846FFF7A6FF052004F0C9
:1002D800BDF9FFF7C9FF034618460837BD4680BD7C
:1002E80080B400AF044B054A12891A8000BFBD468E
:1002F8005DF8047B704700BFFEFF076034000020F4
:1003080080B500AF134B9B8849F2413293420BD022
:10031800104B9B8846F60402934205D00D4B9B88F0
:1003280045F21032934203D12920FFF775FF0FE001
:10033800084B9B8845F21052934204D14FF4245045
:10034800FFF76AFF04E040F273110720FFF79CFFF4
:1003580000BF80BD3400002080B582B000AF0346E6
:100368000A46FB801346BB805B4B9B8849F24132AF
:10037800934205D0584B9B8845F21032934222D1C4
:10038800554B5B891846FFF747FFFB881B0A9BB252
:100398001846FFF755FFFB88DBB29BB21846FFF7FC
:1003A8004FFF4D4B9B891846FFF736FFBB881B0A4A
:1003B8009BB21846FFF744FFBB88DBB29BB21846D6
:1003C800FFF73EFF83E0444B9B8846F604029342C6
:1003D8002DD1414B9B79012B06D13F4B1A88FB88C5
:1003E800D31A9BB2013BFB803B4B5B891846FFF756
:1003F80013FFFB881B0A9BB21846FFF721FFFB88F7
:10040800DBB29BB21846FFF71BFF334B9B8918469C
:10041800FFF702FFBB881B0A9BB21846FFF710FFC5
:10042800BB88DBB29BB21846FFF70AFF4FE02A4BA6
:100438009B8845F21052934230D1274B5B8918466E
:10044800FFF7EAFEFB881B0A9BB21846FFF7F8FE87
:10045800214B5B8901339BB21846FFF7DDFEFB8811
:10046800DBB29BB21846FFF7EBFE1B4B9B89184685
:10047800FFF7D2FEBB881B0A9BB21846FFF7E0FEC7
:10048800154B9B8901339BB21846FFF7C5FEBB8805
:10049800DBB29BB21846FFF7D3FE18E00E4B9B79F0
:1004A800012B06D10C4B1A88FB88D31A9BB2013B4F
:1004B800FB80094B5B89FA8811461846FFF7E4FE72
:1004C800054B9B89BA8811461846FFF7DDFE00BF29
:1004D8000837BD4680BD00BF3400002080B586B017
:1004E80000AF0346FB710023FB820023BB82794BDC
:1004F8009B79012B34D1774B9B8846F604029342B3
:100508002ED0FB79072B2CD801A252F823F000BF7C
:10051800390500083F050008450500084B05000897
:1005280051050008570500085D0500086305000827
:100538000623FB7115E00723FB7112E00423FB710E
:100548000FE00523FB710CE00123FB7109E0002398
:10055800FB7106E00323FB7103E00223FB7100E05B
:1005680000BF5C4B9B8849F24132934212D0594BF1
:100578009B8846F6040293420CD0564B9B8845F262
:100588001032934206D0534B9B8845F21052934247
:1005980040F04281FB79072B35D801A252F823F0AD
:1005A8000F060008C9050008D3050008DD05000886
:1005B800E7050008F1050008FB0500080506000826
:1005C800FB8A43F08003FB821DE0FB8A43F0400373
:1005D800FB8218E0FB8A43F0C003FB8213E0FB8A2E
:1005E80043F02003FB820EE0FB8A43F06003FB82AA
:1005F80009E0FB8A43F0A003FB8204E0FB8A43F096
:10060800E003FB8200BF334B9B8845F210529342B4
:1006180003D14FF45853BB8201E03623BB822D4BE4
:100628009B8845F21032934209D02A4B9B8845F2A9
:100638001052934203D0FB8A43F00803FB82254BF8
:100648009B8846F60402934203D1FB8A43F00203D7
:10065800FB82FA8ABB8A11461846FFF715FEFB8A09
:1006680003F02003002B03D11A4B9B79012B10D1E7
:10067800184B1A88174B5B889A421AD2154B1B885D
:10068800FB81144B5A88134B1A80124AFB895380FA
:100698000FE0104B1A880F4B5B889A4209D90D4B13
:1006A8001B88FB810B4B5A880A4B1A80094AFB8925
:1006B8005380084B9B79012B0ED1064B9B8846F63D
:1006C8000402934208D0034B5B887B82014B1B8852
:1006D8003B8207E0340000207C4B1B887B827B4BED
:1006E8005B883B82794B9B8845F2105293425ED1DE
:1006F800764B5B891846FFF78FFD0020FFF7A0FDBA
:10070800724B5B8901339BB21846FFF785FD0020C9
:10071800FFF796FD6D4B5B8902339BB21846FFF7D6
:100728007BFD7B8A013B1B129BB21846FFF788FDB5
:10073800664B5B8903339BB21846FFF76DFD7B8AD6
:10074800013B9BB2DBB29BB21846FFF779FD5F4BCA
:100758009B891846FFF760FD0020FFF771FD5B4B92
:100768009B8901339BB21846FFF756FD0020FFF71F
:1007780067FD564B9B8902339BB21846FFF74CFD29
:100788003B8A013B1B129BB21846FFF759FD4F4BA2
:100798009B8903339BB21846FFF73EFD3B8A013B1A
:1007A8009BB2DBB29BB21846FFF74AFD89E0474B84
:1007B8005B891846FFF730FD0020FFF741FD002058
:1007C800FFF73EFD7B8A013B1B129BB21846FFF7E1
:1007D80037FD7B8A013B9BB2DBB29BB21846FFF721
:1007E8002FFD3A4B9B891846FFF716FD0020FFF7AF
:1007F80027FD0020FFF724FD3B8A013B1B129BB21B
:100808001846FFF71DFD3B8A013B9BB2DBB29BB24A
:100818001846FFF715FD54E0FB79072B35D801A2E0
:1008280052F823F04D08000857080008610800082E
:10083800930800086B080008750800087F0800087E
:1008480089080008FB8A43F03003FB821DE0FB8A1D
:1008580043F01003FB8218E0FB8A43F02003FB827D
:1008680013E0FB8A43F03803FB820EE0FB8A43F077
:100878002803FB8209E0FB8A43F01803FB8204E0AB
:10088800FB8A43F00803FB8200BF104B9B8848F6A5
:100898008912934208D11123BB82FB8A43F4C043D7
:1008A80043F04003FB8205E00323BB82FB8A43F449
:1008B8008053FB82FA8ABB8A11461846FFF7E4FC8C
:1008C80000BF00BF1837BD4680BD00BF3400002000
:1008D80080B582B000AF0346FB800B46BB80134651
:1008E8007B805F4B9B8849F24132934205D05C4B39
:1008F8009B8845F21032934222D1594B5B891846A6
:10090800FFF78AFCFB881B0A9BB21846FFF798FC86
:10091800FB88DBB29BB21846FFF792FC504B9B89D1
:100928001846FFF779FCBB881B0A9BB21846FFF7ED
:1009380087FCBB88DBB29BB21846FFF781FC83E0DB
:10094800474B9B8845F21052934230D1444B5B8908
:100958001846FFF761FCFB881B0A9BB21846FFF795
:100968006FFC3F4B5B8901339BB21846FFF754FC81
:10097800FB88DBB29BB21846FFF762FC384B9B89B9
:100988001846FFF749FCBB881B0A9BB21846FFF7BD
:1009980057FC334B9B8901339BB21846FFF73CFC4D
:1009A800BB88DBB29BB21846FFF74AFC4CE02C4BE5
:1009B8009B8846F6040293422DD1294B9B79012B43
:1009C80006D1274B1A88FB88D31A9BB2013BFB80C0
:1009D800234B5B891846FFF71FFCFB881B0A9BB259
:1009E8001846FFF72DFCFB88DBB29BB21846FFF7D1
:1009F80027FC1B4B9B891846FFF70EFCBB881B0A7C
:100A08009BB21846FFF71CFCBB88DBB29BB21846AA
:100A1800FFF716FC18E0124B9B79012B06D1104BFF
:100A28001A88FB88D31A9BB2013BFB800C4B5B896D
:100A3800FA8811461846FFF727FC094B9B89BA88A4
:100A480011461846FFF720FC064B054A12891A8002
:100A5800044A7B88538000BF0837BD4680BD00BF6D
:100A680034000020FEFF076080B582B000AF034667
:100A7800FB71FB79002B5FD1684B00229A71674BA1
:100A8800F0221A80654B4FF4A0725A80634B9B8802
:100A980049F2413293420BD0604B9B8846F60402E0
:100AA800934205D05D4B9B8845F2103293421ED18C
:100AB8005A4B2C221A81594B2A225A81574B2B22E6
:100AC8009A81564B9B8846F60402934206D0534BB4
:100AD8009B8845F21032934240F097804F4B4FF479
:100AE800A0721A804D4B4FF4F0725A808DE04B4B38
:100AF8009B8845F21052934214D1484B4FF4305220
:100B08001A81464B4FF428525A81444B4FF42C52C9
:100B18009A81424B4FF4F0721A80404B4FF448725E
:100B28005A8073E03D4B22221A813C4B20225A8185
:100B38003A4B21229A8169E0384B01229A71374B4E
:100B48004FF4A0721A80354BF0225A80334B9B88A1
:100B580049F24132934205D0304B9B8845F210321E
:100B6800934209D12D4B2C221A812C4B2A225A81CF
:100B78002A4B2B229A8133E0284B9B8846F60402A5
:100B8800934209D1254B2C221A81244B2B225A81BE
:100B9800224B2A229A8123E0204B9B8845F210524F
:100BA800934214D11D4B4FF430521A811B4B4FF412
:100BB80028525A81194B4FF42C529A81174B4FF4F3
:100BC80048721A80154B4FF4F0725A8008E0134BA4
:100BD80022221A81114B21225A81104B20229A81FC
:100BE8000E4B9B8846F60402934205D00B4B9B881C
:100BF80045F21032934209D1084B4FF4F0721A8033
:100C0800064B4FF4A0725A8000E000BF0020FFF7A7
:100C180065FC00BF0837BD4680BD00BF340000201A
:100C280080B5A2B000AF0023C7F8843001211A2094
:100C380004F0D8F90121012004F0F4F90223FB673C
:100C4800012387F88030002387F88230022387F851
:100C58008130012387F8833007F17C031946BF48A8
:100C680003F048FF4EF2B373FB67022387F8803026
:100C7800002387F88230032387F88130012387F81F
:100C8800833007F17C031946B54803F033FF4FF66C
:100C98008073FB67022387F88030002387F882304F
:100CA800032387F88130012387F8833007F17C0319
:100CB8001946AC4803F01EFF0C220021A84803F097
:100CC800B7FF0C220121A64803F0B2FF0C22042131
:100CD800A34803F0ADFF0C220521A14803F0A8FFAB
:100CE8000C2207219E4803F0A3FF0C2208219C48F0
:100CF80003F09EFF0C220921994803F099FF0C226A
:100D08000A21974803F094FF0C220D21944803F020
:100D18008FFF0C220E21924803F08AFF0C220F212C
:100D28008F4803F085FF0C2207218E4803F080FFCF
:100D38000C2208218B4803F07BFF0C2209218948EB
:100D480003F076FF0C220A21864803F071FF0C227B
:100D58000B21844803F06CFF0C220C21814803F01E
:100D680067FF0C220D217F4803F062FF0C220E2141
:100D78007C4803F05DFF0C220F217A4803F058FFEE
:100D88000F237B620023BB623C23FB6200233B638F
:100D980000237B630023BB630023FB630923BB6041
:100DA8000023FB6008233B6100237B610023BB61B8
:100DB8000023FB6100233B6200233B6400237B6428
:100DC8000023BB641023FB6400233B650023BB6541
:100DD80000237B650023FB6500233B664FF48053AB
:100DE8007B660023BB664FF48043FB6600233B67AA
:100DF80007F124037B6707F10803BB6707F140038A
:100E0800184603F07FFD0121002003F049FE32203F
:100E180003F03AFC01210020FFF736FA322003F0F4
:100E280033FC0020FFF748FA03461A464E4B9A80D7
:100E38004D4B9B88FE2B0BD94B4B9B884FF6FF7273
:100E4800934205D0484B9B88B3F5134F40F0C380BD
:100E5800D320FFF7E1F9FFF707FA03461A46424B9A
:100E68009A80FFF701FA03461A463F4B9A80FFF72C
:100E7800FBF903461A463C4B9A803B4B9B881B0266
:100E88009AB2394B9A80FFF7EFF903461A46364B68
:100E98009B8813439AB2344B9A80334B9B8849F210
:100EA8004132934200F09780BF20FFF7B5F9FFF772
:100EB800DBF903461A462C4B9A80FFF7D5F903460F
:100EC8001A46294B9A80FFF7CFF903461A46264B54
:100ED8009A80FFF7C9F903461A46234B9A80224B9A
:100EE8009B881B029AB2204B9A80FFF7BDF90346F4
:100EF8001A461D4B9B8813439AB21B4B9A801A4B78
:100F08009B8846F60402934265D0D420FFF784F903
:100F1800FFF7AAF903461A46134B9A80FFF7A4F97C
:100F280003461A46104B9A80FFF79EF903461A4665
:100F38000D4B9A800C4B9B881B029AB20A4B9A80E5
:100F4800FFF792F903461A46074B9B8813439AB258
:100F5800054B9A80044B9B8808E000BF00040240C0
:100F6800000C0240001002403400002045F210320C
:100F7800934230D04FF45A40FFF74EF9FFF774F917
:100F880003461A46CC4B9A804FF45B40FFF744F96E
:100F9800FFF76AF903461A46C74B9A80C64B9B88E7
:100FA8001B029AB2C44B9A804FF45C40FFF734F9A5
:100FB800FFF75AF903461A46BF4B9B8813439AB268
:100FC800BD4B9A80BC4B9B88B3F5004F03D1BA4BFD
:100FD80045F210529A80B84B9B8849F241329342AD
:100FE8000BD0B54B9B8845F21032934205D0B24BDB
:100FF8009B8845F21052934218D1B04B9B69AF4A77
:1010080023F00F039361AD4B9B69AC4A23F47063E3
:101018009361AA4B9B69A94A43F003039361A74BC9
:101028009B69A64A43F40073936123E0A24B9B8813
:1010380046F60402934205D09F4B9B884CF205521A
:10104800934217D19D4B9B699C4A23F00F039361F0
:101058009A4B9B69994A23F470639361974B9B69F8
:10106800964A43F00A039361944B9B69934A43F46D
:1010780040639361904B9B8849F24132934240F020
:101088001F81CF20FFF7C8F80020FFF7D9F8D7F85D
:1010980084300133C7F88430C120FFF7D1F83020FD
:1010A800FFF7CEF8ED20FFF7B7F86420FFF7C8F890
:1010B8000320FFF7C5F81220FFF7C2F88120FFF7D9
:1010C800BFF8E820FFF7A8F88520FFF7B9F8102047
:1010D800FFF7B6F87A20FFF7B3F8CB20FFF79CF8B4
:1010E8003920FFF7ADF82C20FFF7AAF80020FFF70A
:1010F800A7F83420FFF7A4F80220FFF7A1F8F7209B
:10110800FFF78AF82020FFF79BF8EA20FFF784F81A
:101118000020FFF795F80020FFF792F8C020FFF7AE
:101128007BF81B20FFF78CF8C120FFF775F801202A
:10113800FFF786F8C520FFF76FF83020FFF780F833
:101148003020FFF77DF8C720FFF766F8B720FFF7D4
:1011580077F83620FFF760F84820FFF771F83A2053
:10116800FFF75AF85520FFF76BF8B120FFF754F84E
:101178000020FFF765F81A20FFF762F8B620FFF79E
:101188004BF80A20FFF75CF8A220FFF759F8F22085
:10119800FFF742F80020FFF753F82620FFF73CF846
:1011A8000120FFF74DF8E020FFF736F80F20FFF792
:1011B80047F82A20FFF744F82820FFF741F80820CD
:1011C800FFF73EF80E20FFF73BF80820FFF738F846
:1011D8005420FFF735F8A920FFF732F84320FFF72E
:1011E8002FF80A20FFF72CF80F20FFF729F8002026
:1011F800FFF726F80020FFF723F80020FFF720F874
:101208000020FFF71DF8E120FFF706F80020FFF7A0
:1012180017F81520FFF714F81720FFF711F8072023
:10122800FFF70EF81120FFF70BF80620FFF708F874
:101238002B20FFF705F85620FFF702F83C20FEF7B1
:10124800FFFF0520FEF7FCFF1020FEF7F9FF0F2037
:10125800FEF7F6FF3F20FEF7F3FF3F20FEF7F0FF13
:101268000F20FEF7EDFF2B20FEF7D6FF0020FEF73C
:10127800E7FF0020FEF7E4FF0120FEF7E1FF3F2033
:10128800FEF7DEFF2A20FEF7C7FF0020FEF7D8FF93
:101298000020FEF7D5FF0020FEF7D2FFEF20FEF773
:1012A800CFFF1120FEF7B8FF782003F0EDF92920D1
:1012B800FEF7B2FF03F05FB834000020040100A07D
:1012C800584B9B8846F60402934240F0AD801120AB
:1012D800FEF7A2FF142003F0D7F9D020FEF79CFFF9
:1012E8000720FEF7ADFF4220FEF7AAFF1D20FEF7FC
:1012F800A7FFD120FEF790FF0020FEF7A1FF1A20DC
:10130800FEF79EFF0920FEF79BFFD220FEF784FF21
:101318000120FEF795FF2220FEF792FFC020FEF77E
:101328007BFF1020FEF78CFF3B20FEF789FF002093
:10133800FEF786FF0220FEF783FF1120FEF780FFED
:10134800C520FEF769FF0320FEF77AFFC820FEF7E5
:1013580063FF0020FEF774FF2520FEF771FF2120B0
:10136800FEF76EFF0520FEF76BFF0020FEF768FF13
:101378000A20FEF765FF6520FEF762FF2520FEF7CD
:101388005FFF7720FEF75CFF5020FEF759FF0F2024
:10139800FEF756FF0020FEF753FFF820FEF73CFF4C
:1013A8000120FEF74DFFFE20FEF736FF0020FEF776
:1013B80047FF0220FEF744FF2020FEF72DFF3620CE
:1013C800FEF72AFF0820FEF73BFF3A20FEF724FF2E
:1013D8005520FEF735FF2B20FEF71EFF0020FEF7F5
:1013E8002FFF0020FEF72CFF0120FEF729FF3F20EA
:1013F800FEF726FF2A20FEF70FFF0020FEF720FF4A
:101408000020FEF71DFF0120FEF71AFFDF20FEF780
:1014180017FF782003F038F92920FEF7FDFE02F0C7
:10142800AABF00BF34000020034B9B8845F210324E
:10143800934240F07C8701E034000020ED20FEF765
:10144800EBFE0120FEF7FCFEFE20FEF7F9FEEE2083
:10145800FEF7E2FEDE20FEF7F3FE2120FEF7F0FEA7
:10146800F120FEF7D9FE0120FEF7EAFEDF20FEF7A5
:10147800D3FE1020FEF7E4FEC420FEF7CDFE8F2039
:10148800FEF7DEFEC620FEF7C7FE0020FEF7D8FEF8
:10149800E220FEF7D5FEE220FEF7D2FEE220FEF7BC
:1014A800CFFEBF20FEF7B8FEAA20FEF7C9FEB02087
:1014B800FEF7B2FE0D20FEF7C3FE0020FEF7C0FEC9
:1014C8000D20FEF7BDFE0020FEF7BAFE1120FEF744
:1014D800B7FE0020FEF7B4FE1920FEF7B1FE00208B
:1014E800FEF7AEFE2120FEF7ABFE0020FEF7A8FEB9
:1014F8002D20FEF7A5FE0020FEF7A2FE3D20FEF7F8
:101508009FFE0020FEF79CFE5D20FEF799FE00205E
:10151800FEF796FE5D20FEF793FE0020FEF790FE94
:10152800B120FEF779FE8020FEF78AFE0020FEF744
:1015380087FE8B20FEF784FE0020FEF781FE9620B2
:10154800FEF77EFE0020FEF77BFEB220FEF764FE6B
:101558000020FEF775FE0020FEF772FE0220FEF75F
:101568006FFE0020FEF76CFE0320FEF769FE0020E8
:10157800FEF766FEB320FEF74FFE0020FEF760FE82
:101588000020FEF75DFE0020FEF75AFE0020FEF761
:1015980057FE0020FEF754FE0020FEF751FE002003
:1015A800FEF74EFE0020FEF74BFE0020FEF748FE39
:1015B8000020FEF745FE0020FEF742FE0020FEF761
:1015C8003FFE0020FEF73CFE0020FEF739FE00201B
:1015D800FEF736FE0020FEF733FE0020FEF730FE51
:1015E8000020FEF72DFE0020FEF72AFE0020FEF761
:1015F80027FE0020FEF724FE0020FEF721FE002033
:10160800FEF71EFE0020FEF71BFEB420FEF704FEC8
:101618008B20FEF715FE0020FEF712FE9620FEF73F
:101628000FFE0020FEF70CFEA120FEF709FE0020A9
:10163800FEF706FEB520FEF7EFFD0220FEF700FEDE
:101648000020FEF7FDFD0320FEF7FAFD0020FEF75F
:10165800F7FD0420FEF7F4FD0020FEF7F1FDB620AB
:10166800FEF7DAFD0020FEF7EBFD0020FEF7E8FDAF
:10167800B720FEF7D1FD0020FEF7E2FD0020FEF7BF
:10168800DFFD3F20FEF7DCFD0020FEF7D9FD5E20E0
:10169800FEF7D6FD0020FEF7D3FD6420FEF7D0FD4F
:1016A8000020FEF7CDFD8C20FEF7CAFD0020FEF7D6
:1016B800C7FDAC20FEF7C4FD0020FEF7C1FDDC200D
:1016C800FEF7BEFD0020FEF7BBFD7020FEF7B8FD5B
:1016D8000020FEF7B5FD9020FEF7B2FD0020FEF7D2
:1016E800AFFDEB20FEF7ACFD0020FEF7A9FDDC20E6
:1016F800FEF7A6FD0020FEF7A3FDB820FEF78CFD3F
:101708000020FEF79DFD0020FEF79AFD0020FEF761
:1017180097FD0020FEF794FD0020FEF791FD0020C4
:10172800FEF78EFD0020FEF78BFD0020FEF788FDFA
:10173800BA20FEF771FD2420FEF782FD0020FEF797
:101748007FFD0020FEF77CFD0020FEF779FDC1201B
:10175800FEF762FD2020FEF773FD0020FEF770FD06
:101768005420FEF76DFD0020FEF76AFDFF20FEF70E
:1017780067FD0020FEF764FDC220FEF74DFD0A203C
:10178800FEF75EFD0020FEF75BFD0420FEF758FD26
:101798000020FEF755FDC320FEF73EFD3C20FEF776
:1017A8004FFD0020FEF74CFD3A20FEF749FD0020D2
:1017B800FEF746FD3920FEF743FD0020FEF740FD09
:1017C8003720FEF73DFD0020FEF73AFD3C20FEF7EE
:1017D80037FD0020FEF734FD3620FEF731FD0020EE
:1017E800FEF72EFD3220FEF72BFD0020FEF728FD28
:1017F8002F20FEF725FD0020FEF722FD2C20FEF706
:101808001FFD0020FEF71CFD2920FEF719FD002012
:10181800FEF716FD2620FEF713FD0020FEF710FD4B
:101828002420FEF70DFD0020FEF70AFD2420FEF718
:1018380007FD0020FEF704FD2320FEF701FD002030
:10184800FEF7FEFC3C20FEF7FBFC0020FEF7F8FC50
:101858003620FEF7F5FC0020FEF7F2FC3220FEF7FA
:10186800EFFC0020FEF7ECFC2F20FEF7E9FC00203F
:10187800FEF7E6FC2C20FEF7E3FC0020FEF7E0FC78
:101888002920FEF7DDFC0020FEF7DAFC2620FEF713
:10189800D7FC0020FEF7D4FC2420FEF7D1FC002062
:1018A800FEF7CEFC2420FEF7CBFC0020FEF7C8FC98
:1018B8002320FEF7C5FC0020FEF7C2FCC420FEF77B
:1018C800ABFC6220FEF7BCFC0020FEF7B9FC05204B
:1018D800FEF7B6FC0020FEF7B3FC8420FEF7B0FC50
:1018E8000020FEF7ADFCF020FEF7AAFC0020FEF772
:1018F800A7FC1820FEF7A4FC0020FEF7A1FCA420FA
:10190800FEF79EFC0020FEF79BFC1820FEF798FCD3
:101918000020FEF795FC5020FEF792FC0020FEF711
:101928008FFC0C20FEF78CFC0020FEF789FC1720AA
:10193800FEF786FC0020FEF783FC9520FEF780FC6E
:101948000020FEF77DFCF320FEF77AFC0020FEF76E
:1019580077FCE620FEF774FC0020FEF771FCC5203A
:10196800FEF75AFC3220FEF76BFC0020FEF768FCFD
:101978004420FEF765FC0020FEF762FC6520FEF7B8
:101988005FFC0020FEF75CFC7620FEF759FC002087
:10199800FEF756FC8820FEF753FC0020FEF750FCAB
:1019A800C620FEF739FC2020FEF74AFC0020FEF78F
:1019B80047FC1720FEF744FC0020FEF741FC0120FD
:1019C800FEF73EFC0020FEF73BFCC720FEF724FC98
:1019D8000020FEF735FC0020FEF732FC0020FEF761
:1019E8002FFC0020FEF72CFCC820FEF715FC002079
:1019F800FEF726FC0020FEF723FC0020FEF720FC63
:101A08000020FEF71DFCC920FEF706FC0020FEF7AB
:101A180017FC0020FEF714FC0020FEF711FC002044
:101A2800FEF70EFC0020FEF70BFC0020FEF708FC7A
:101A38000020FEF705FC0020FEF702FC0020FEF760
:101A4800FFFB0020FEF7FCFB0020FEF7F9FB00205F
:101A5800FEF7F6FB0020FEF7F3FB0020FEF7F0FB95
:101A68000020FEF7EDFB0020FEF7EAFBE020FEF782
:101A7800D3FB1620FEF7E4FB0020FEF7E1FB1C2059
:101A8800FEF7DEFB0020FEF7DBFB2120FEF7D8FB8C
:101A98000020FEF7D5FB3620FEF7D2FB0020FEF72C
:101AA800CFFB4620FEF7CCFB0020FEF7C9FB5220F7
:101AB800FEF7C6FB0020FEF7C3FB6420FEF7C0FB61
:101AC8000020FEF7BDFB7A20FEF7BAFB0020FEF7E8
:101AD800B7FB8B20FEF7B4FB0020FEF7B1FB992083
:101AE800FEF7AEFB0020FEF7ABFBA820FEF7A8FB35
:101AF8000020FEF7A5FBB920FEF7A2FB0020FEF7A9
:101B08009FFBC420FEF79CFB0020FEF799FBCA2030
:101B1800FEF796FB0020FEF793FBD220FEF790FB22
:101B28000020FEF78DFBD920FEF78AFB0020FEF788
:101B380087FBE020FEF784FB0020FEF781FBF32003
:101B4800FEF77EFB0020FEF77BFBE120FEF764FB3F
:101B58001620FEF775FB0020FEF772FB1C20FEF72F
:101B68006FFB0020FEF76CFB2220FEF769FB0020CC
:101B7800FEF766FB3620FEF763FB0020FEF760FBEE
:101B88004520FEF75DFB0020FEF75AFB5220FEF7CA
:101B980057FB0020FEF754FB6420FEF751FB0020A2
:101BA800FEF74EFB7A20FEF74BFB0020FEF748FBC2
:101BB8008B20FEF745FB0020FEF742FB9920FEF73D
:101BC8003FFB0020FEF73CFBA820FEF739FB002076
:101BD800FEF736FBB920FEF733FB0020FEF730FB9B
:101BE800C420FEF72DFB0020FEF72AFBCA20FEF7D3
:101BF80027FB0020FEF724FBD220FEF721FB002064
:101C0800FEF71EFBD820FEF71BFB0020FEF718FB93
:101C1800E020FEF715FB0020FEF712FBF320FEF78D
:101C28000FFB0020FEF70CFBE220FEF7F5FA05207B
:101C3800FEF706FB0020FEF703FB0B20FEF700FB78
:101C48000020FEF7FDFA1B20FEF7FAFA0020FEF747
:101C5800F7FA3420FEF7F4FA0020FEF7F1FA4420F0
:101C6800FEF7EEFA0020FEF7EBFA4F20FEF7E8FA4F
:101C78000020FEF7E5FA6120FEF7E2FA0020FEF701
:101C8800DFFA7920FEF7DCFA0020FEF7D9FA88207F
:101C9800FEF7D6FA0020FEF7D3FA9720FEF7D0FA1F
:101CA8000020FEF7CDFAA620FEF7CAFA0020FEF7BC
:101CB800C7FAB720FEF7C4FA0020FEF7C1FAC2201F
:101CC800FEF7BEFA0020FEF7BBFAC720FEF7B8FA07
:101CD8000020FEF7B5FAD120FEF7B2FA0020FEF791
:101CE800AFFAD620FEF7ACFA0020FEF7A9FADD20FD
:101CF800FEF7A6FA0020FEF7A3FAF320FEF7A0FAF3
:101D08000020FEF79DFAE320FEF786FA0520FEF78D
:101D180097FA0020FEF794FA0A20FEF791FA0020BD
:101D2800FEF78EFA1C20FEF78BFA0020FEF788FAE1
:101D38003320FEF785FA0020FEF782FA4420FEF7EA
:101D48007FFA0020FEF77CFA5020FEF779FA00208F
:101D5800FEF776FA6220FEF773FA0020FEF770FAB3
:101D68007820FEF76DFA0020FEF76AFA8820FEF761
:101D780067FA0020FEF764FA9720FEF761FA002060
:101D8800FEF75EFAA620FEF75BFA0020FEF758FA87
:101D9800B720FEF755FA0020FEF752FAC220FEF7E8
:101DA8004FFA0020FEF74CFAC720FEF749FA002048
:101DB800FEF746FAD120FEF743FA0020FEF740FA74
:101DC800D520FEF73DFA0020FEF73AFADD20FEF7AF
:101DD80037FA0020FEF734FAF320FEF731FA002034
:101DE800FEF72EFAE420FEF717FA0120FEF728FA8C
:101DF8000020FEF725FA0120FEF722FA0020FEF760
:101E08001FFA0220FEF71CFA0020FEF719FA2A2012
:101E1800FEF716FA0020FEF713FA3C20FEF710FA38
:101E28000020FEF70DFA4B20FEF70AFA0020FEF715
:101E380007FA5D20FEF704FA0020FEF701FA742085
:101E4800FEF7FEF90020FEF7FBF98420FEF7F8F90B
:101E58000020FEF7F5F99320FEF7F2F90020FEF7CF
:101E6800EFF9A220FEF7ECF90020FEF7E9F9B3201C
:101E7800FEF7E6F90020FEF7E3F9BE20FEF7E0F9E9
:101E88000020FEF7DDF9C420FEF7DAF90020FEF79E
:101E9800D7F9CD20FEF7D4F90020FEF7D1F9D320E9
:101EA800FEF7CEF90020FEF7CBF9DD20FEF7C8F9E2
:101EB8000020FEF7C5F9F320FEF7C2F90020FEF76F
:101EC800BFF9E520FEF7A8F90020FEF7B9F90020D0
:101ED800FEF7B6F90020FEF7B3F90020FEF7B0F9D7
:101EE8000220FEF7ADF90020FEF7AAF92920FEF737
:101EF800A7F90020FEF7A4F93C20FEF7A1F900207D
:101F0800FEF79EF94B20FEF79BF90020FEF798F9A3
:101F18005D20FEF795F90020FEF792F97420FEF790
:101F28008FF90020FEF78CF98420FEF789F900204C
:101F3800FEF786F99320FEF783F90020FEF780F973
:101F4800A220FEF77DF90020FEF77AF9B320FEF70C
:101F580077F90020FEF774F9BE20FEF771F900202A
:101F6800FEF76EF9C420FEF76BF90020FEF768F95A
:101F7800CD20FEF765F90020FEF762F9D320FEF7C1
:101F88005FF90020FEF75CF9DC20FEF759F9002024
:101F9800FEF756F9F320FEF753F90020FEF750F943
:101FA800E620FEF739F91120FEF74AF90020FEF77E
:101FB80047F93420FEF744F90020FEF741F956208E
:101FC800FEF73EF90020FEF73BF97620FEF738F9D8
:101FD8000020FEF735F97720FEF732F90020FEF7EA
:101FE8002FF96620FEF72CF90020FEF729F9882042
:101FF800FEF726F90020FEF723F99920FEF720F9CD
:102008000020FEF71DF9BB20FEF71AF90020FEF7A5
:1020180017F99920FEF714F90020FEF711F9662048
:10202800FEF70EF90020FEF70BF95520FEF708F928
:102038000020FEF705F95520FEF702F90020FEF70B
:10204800FFF84520FEF7FCF80020FEF7F9F84320DA
:10205800FEF7F6F80020FEF7F3F84420FEF7F0F854
:102068000020FEF7EDF8E720FEF7D6F83220FEF75D
:10207800E7F80020FEF7E4F85520FEF7E1F8002025
:10208800FEF7DEF87620FEF7DBF80020FEF7D8F83A
:102098006620FEF7D5F80020FEF7D2F86720FEF795
:1020A800CFF80020FEF7CCF86720FEF7C9F800202B
:1020B800FEF7C6F88720FEF7C3F80020FEF7C0F841
:1020C8009920FEF7BDF80020FEF7BAF8BB20FEF70E
:1020D800B7F80020FEF7B4F89920FEF7B1F8002011
:1020E800FEF7AEF87720FEF7ABF80020FEF7A8F869
:1020F8004420FEF7A5F80020FEF7A2F85620FEF7C8
:102108009FF80020FEF79CF82320FEF799F800209E
:10211800FEF796F83320FEF793F80020FEF790F8C4
:102128004520FEF78DF80020FEF78AF8E820FEF734
:1021380073F80020FEF784F80020FEF781F8992054
:10214800FEF77EF80020FEF77BF88720FEF778F888
:102158000020FEF775F88820FEF772F80020FEF7D9
:102168006FF87720FEF76CF80020FEF769F8662014
:10217800FEF766F80020FEF763F88820FEF760F89F
:102188000020FEF75DF8AA20FEF75AF80020FEF7B7
:1021980057F8BB20FEF754F80020FEF751F89920B5
:1021A800FEF74EF80020FEF74BF86620FEF748F8D9
:1021B8000020FEF745F85520FEF742F80020FEF70C
:1021C8003FF85520FEF73CF80020FEF739F8442088
:1021D800FEF736F80020FEF733F84420FEF730F813
:1021E8000020FEF72DF85520FEF72AF80020FEF70C
:1021F80027F8E920FEF710F8AA20FEF721F80020BA
:10220800FEF71EF80020FEF71BF80020FEF718F86E
:102218000020FEF701F8AA20FEF712F8CF20FDF7FC
:10222800FBFF0020FEF70CF80020FEF709F800205D
:10223800FEF706F80020FEF703F80020FEF700F886
:102248000020FDF7FDFF0020FDF7FAFF0020FDF755
:10225800F7FF0020FDF7F4FF0020FDF7F1FF002055
:10226800FDF7EEFF0020FDF7EBFF0020FDF7E8FF8C
:102278000020FDF7E5FF0020FDF7E2FF0020FDF755
:10228800DFFF0020FDF7DCFFF020FDF7C5FF002091
:10229800FDF7D6FF5020FDF7D3FF0020FDF7D0FF54
:1022A8000020FDF7CDFF0020FDF7CAFFF320FDF762
:1022B800B3FF0020FDF7C4FFF920FDF7ADFF0620AE
:1022C800FDF7BEFF1020FDF7BBFF2920FDF7B8FF83
:1022D8000020FDF7B5FF3A20FDF79EFF5520FDF7DA
:1022E800AFFF1120FDF798FF642002F0CDF92920F7
:1022F800FDF792FF3520FDF78FFF0020FDF7A0FFC7
:102308005120FDF789FFFF20FDF79AFF5320FDF7C5
:1023180083FF2C20FDF794FF5520FDF77DFF8220D9
:10232800FDF78EFF2C20FDF777FF02F024B8044B51
:102338009B8845F21052934240F0828702E000BF2A
:102348003400002055214FF47040FDF79DFFAA216D
:102358004FF20100FDF798FF52214FF20200FDF7FE
:1023680093FF08214FF20300FDF78EFF01214FF282
:102378000400FDF789FF0D214FF43040FDF784FF7D
:102388000D214BF20100FDF77FFF0D214BF20200FA
:10239800FDF77AFF34214FF43640FDF775FF3421FD
:1023A8004BF20160FDF770FF34214BF20260FDF73C
:1023B8006BFF0D214FF43140FDF766FF0D214BF205
:1023C8000110FDF761FF0D214BF20210FDF75CFFD4
:1023D80034214FF43740FDF757FF34214BF2017099
:1023E800FDF752FF34214BF20270FDF74DFF00213B
:1023F8004FF43240FDF748FF00214BF20120FDF772
:1024080043FF00214BF20220FDF73EFF24214FF449
:102418003840FDF739FF24214BF60100FDF734FF62
:1024280024214BF60200FDF72FFF01214FF43F4016
:10243800FDF72AFF0F214FF43340FDF725FF0F2149
:102448004BF20130FDF720FF0F214BF20230FDF770
:102458001BFF34214FF43940FDF716FF34214BF6AA
:102468000110FDF711FF34214BF60210FDF70CFFA8
:1024780008214FF43540FDF707FF08214BF20150C2
:10248800FDF702FF08214BF20250FDF7FDFE032184
:102498004FF44240FDF7F8FE24214FF43A40FDF78F
:1024A800F3FE24214BF60120FDF7EEFE24214BF626
:1024B8000220FDF7E9FE00214FF43C40FDF7E4FE61
:1024C80078214BF60140FDF7DFFE00214BF6024074
:1024D800FDF7DAFE00214FF43D40FDF7D5FE7821E7
:1024E8004BF60150FDF7D0FE00214BF60250FDF7E8
:1024F800CBFE00214FF43E40FDF7C6FE64214BF6AB
:102508000160FDF7C1FE00214FF45140FDF7BCFE0C
:1025180033214DF20110FDF7B7FE00214DF20210F4
:10252800FDF7B2FE34214DF20310FDF7ADFE002198
:102538004DF20410FDF7A8FE3A214DF20510FDF703
:10254800A3FE00214DF20610FDF79EFE4A214DF232
:102558000710FDF799FE00214DF20810FDF794FED3
:102568005C214DF20910FDF78FFE00214DF20A1093
:10257800FDF78AFE81214DF20B10FDF785FE002143
:102588004DF20C10FDF780FEA6214DF20D10FDF75F
:102598007BFE00214DF20E10FDF776FEE5214DF28F
:1025A8000F10FDF771FE01214DF21010FDF76CFEC2
:1025B80013214DF21110FDF767FE01214DF21210A3
:1025C800FDF762FE54214DF21310FDF75DFE012167
:1025D8004DF21410FDF758FE82214DF21510FDF74B
:1025E80053FE01214DF21610FDF74EFECA214DF2A1
:1025F8001710FDF749FE02214DF21810FDF744FEB1
:1026080000214DF21910FDF73FFE02214DF21A107C
:10261800FDF73AFE01214DF21B10FDF735FE0221B0
:102628004DF21C10FDF730FE34214DF21D10FDF760
:102638002BFE02214DF21E10FDF726FE67214DF2FA
:102648001F10FDF721FE02214DF22010FDF71CFEA0
:1026580084214DF22110FDF717FE02214DF22210C0
:10266800FDF712FEA4214DF22310FDF70DFE022105
:102678004DF22410FDF708FEB7214DF22510FDF7A5
:1026880003FE02214DF22610FDF7FEFDCF214DF28B
:102698002710FDF7F9FD02214DF22810FDF7F4FD92
:1026A800DE214DF22910FDF7EFFD02214DF22A102F
:1026B800FDF7EAFDF2214DF22B10FDF7E5FD0221B1
:1026C8004DF22C10FDF7E0FDFE214DF22D10FDF727
:1026D800DBFD03214DF22E10FDF7D6FD10214DF242
:1026E8002F10FDF7D1FD03214DF23010FDF7CCFD81
:1026F80033214DF23110FDF7C7FD03214DF23210A1
:10270800FDF7C2FD6D214DF23310FDF7BDFD00212F
:102718004FF45240FDF7B8FD33214DF20120FDF78B
:10272800B3FD00214DF20220FDF7AEFD34214DF23C
:102738000320FDF7A9FD00214DF20420FDF7A4FDBB
:102748003A214DF20520FDF79FFD00214DF20620AC
:10275800FDF79AFD4A214DF20720FDF795FD00216E
:102768004DF20820FDF790FD5C214DF20920FDF7A0
:102778008BFD00214DF20A20FDF786FD81214DF2E7
:102788000B20FDF781FD00214DF20C20FDF77CFDAB
:10279800A6214DF20D20FDF777FD00214DF20E2008
:1027A800FDF772FDE5214DF20F20FDF76DFD0121CA
:1027B8004DF21020FDF768FD13214DF21120FDF7B1
:1027C80063FD01214DF21220FDF75EFD54214DF20B
:1027D8001320FDF759FD01214DF21420FDF754FD9A
:1027E80082214DF21520FDF74FFD01214DF21620F3
:1027F800FDF74AFDCA214DF21720FDF745FD0221DC
:102808004DF21820FDF740FD00214DF21920FDF78B
:102818003BFD02214DF21A20FDF736FD01214DF254
:102828001B20FDF731FD02214DF21C20FDF72CFD88
:1028380034214DF21D20FDF727FD02214DF21E2007
:10284800FDF722FD67214DF21F20FDF71DFD022136
:102858004DF22020FDF718FD84214DF22120FDF7CF
:1028680013FD02214DF22220FDF70EFDA4214DF2A9
:102878002320FDF709FD02214DF22420FDF704FD78
:10288800B7214DF22520FDF7FFFC02214DF226204D
:10289800FDF7FAFCCF214DF22720FDF7F5FC0221C8
:1028A8004DF22820FDF7F0FCDE214DF22920FDF73E
:1028B800EBFC02214DF22A20FDF7E6FCF2214DF255
:1028C8002B20FDF7E1FC02214DF22C20FDF7DCFC6A
:1028D800FE214DF22D20FDF7D7FC03214DF22E20CD
:1028E800FDF7D2FC10214DF22F20FDF7CDFC03217E
:1028F8004DF23020FDF7C8FC33214DF23120FDF7B1
:10290800C3FC03214DF23220FDF7BEFC6D214DF2D0
:102918003320FDF7B9FC00214FF45340FDF7B4FC18
:1029280033214DF20130FDF7AFFC00214DF20230AA
:10293800FDF7AAFC34214DF20330FDF7A5FC002178
:102948004DF20430FDF7A0FC3A214DF20530FDF7B9
:102958009BFC00214DF20630FDF796FC4A214DF212
:102968000730FDF791FC00214DF20830FDF78CFC93
:102978005C214DF20930FDF787FC00214DF20A3049
:10298800FDF782FC81214DF20B30FDF77DFC002123
:102998004DF20C30FDF778FCA6214DF20D30FDF715
:1029A80073FC00214DF20E30FDF76EFCE5214DF26F
:1029B8000F30FDF769FC01214DF21030FDF764FC82
:1029C80013214DF21130FDF75FFC01214DF2123059
:1029D800FDF75AFC54214DF21330FDF755FC012147
:1029E8004DF21430FDF750FC82214DF21530FDF701
:1029F8004BFC01214DF21630FDF746FCCA214DF281
:102A08001730FDF741FC02214DF21830FDF73CFC70
:102A180000214DF21930FDF737FC02214DF21A3032
:102A2800FDF732FC01214DF21B30FDF72DFC022190
:102A38004DF21C30FDF728FC34214DF21D30FDF716
:102A480023FC02214DF21E30FDF71EFC67214DF2DA
:102A58001F30FDF719FC02214DF22030FDF714FC60
:102A680084214DF22130FDF70FFC02214DF2223076
:102A7800FDF70AFCA4214DF22330FDF705FC0221E5
:102A88004DF22430FDF700FCB7214DF22530FDF75B
:102A9800FBFB02214DF22630FDF7F6FBCF214DF26C
:102AA8002730FDF7F1FB02214DF22830FDF7ECFB52
:102AB800DE214DF22930FDF7E7FB02214DF22A30E5
:102AC800FDF7E2FBF2214DF22B30FDF7DDFB022191
:102AD8004DF22C30FDF7D8FBFE214DF22D30FDF7DD
:102AE800D3FB03214DF22E30FDF7CEFB10214DF222
:102AF8002F30FDF7C9FB03214DF23030FDF7C4FB41
:102B080033214DF23130FDF7BFFB03214DF2323056
:102B1800FDF7BAFB6D214DF23330FDF7B5FB00210F
:102B28004FF45440FDF7B0FB33214DF20140FDF75F
:102B3800ABFB00214DF20240FDF7A6FB34214DF21C
:102B48000340FDF7A1FB00214DF20440FDF79CFB7B
:102B58003A214DF20540FDF797FB00214DF2064062
:102B6800FDF792FB4A214DF20740FDF78DFB00214E
:102B78004DF20840FDF788FB5C214DF20940FDF756
:102B880083FB00214DF20A40FDF77EFB81214DF2C7
:102B98000B40FDF779FB00214DF20C40FDF774FB6B
:102BA800A6214DF20D40FDF76FFB00214DF20E40BE
:102BB800FDF76AFBE5214DF20F40FDF765FB0121AA
:102BC8004DF21040FDF760FB13214DF21140FDF767
:102BD8005BFB01214DF21240FDF756FB54214DF2EB
:102BE8001340FDF751FB01214DF21440FDF74CFB5A
:102BF80082214DF21540FDF747FB01214DF21640A9
:102C0800FDF742FBCA214DF21740FDF73DFB0221BB
:102C18004DF21840FDF738FB00214DF21940FDF741
:102C280033FB02214DF21A40FDF72EFB01214DF234
:102C38001B40FDF729FB02214DF21C40FDF724FB48
:102C480034214DF21D40FDF71FFB02214DF21E40BD
:102C5800FDF71AFB67214DF21F40FDF715FB022116
:102C68004DF22040FDF710FB84214DF22140FDF785
:102C78000BFB02214DF22240FDF706FBA4214DF289
:102C88002340FDF701FB02214DF22440FDF7FCFA39
:102C9800B7214DF22540FDF7F7FA02214DF2264003
:102CA800FDF7F2FACF214DF22740FDF7EDFA0221A8
:102CB8004DF22840FDF7E8FADE214DF22940FDF7F4
:102CC800E3FA02214DF22A40FDF7DEFAF2214DF235
:102CD8002B40FDF7D9FA02214DF22C40FDF7D4FA2A
:102CE800FE214DF22D40FDF7CFFA03214DF22E4083
:102CF800FDF7CAFA10214DF22F40FDF7C5FA03215E
:102D08004DF23040FDF7C0FA33214DF23140FDF766
:102D1800BBFA03214DF23240FDF7B6FA6D214DF2B0
:102D28003340FDF7B1FA00214FF45540FDF7ACFAF6
:102D380033214DF20150FDF7A7FA00214DF2025060
:102D4800FDF7A2FA34214DF20350FDF79DFA002158
:102D58004DF20450FDF798FA3A214DF20550FDF76F
:102D680093FA00214DF20650FDF78EFA4A214DF2F2
:102D78000750FDF789FA00214DF20850FDF784FA53
:102D88005C214DF20950FDF77FFA00214DF20A50FF
:102D9800FDF77AFA81214DF20B50FDF775FA002103
:102DA8004DF20C50FDF770FAA6214DF20D50FDF7CB
:102DB8006BFA00214DF20E50FDF766FAE5214DF24F
:102DC8000F50FDF761FA01214DF21050FDF75CFA42
:102DD80013214DF21150FDF757FA01214DF212500F
:102DE800FDF752FA54214DF21350FDF74DFA012127
:102DF8004DF21450FDF748FA82214DF21550FDF7B7
:102E080043FA01214DF21650FDF73EFACA214DF260
:102E18001750FDF739FA02214DF21850FDF734FA30
:102E280000214DF21950FDF72FFA02214DF21A50E8
:102E3800FDF72AFA01214DF21B50FDF725FA022170
:102E48004DF21C50FDF720FA34214DF21D50FDF7CC
:102E58001BFA02214DF21E50FDF716FA67214DF2BA
:102E68001F50FDF711FA02214DF22050FDF70CFA20
:102E780084214DF22150FDF707FA02214DF222502C
:102E8800FDF702FAA4214DF22350FDF7FDF90221C6
:102E98004DF22450FDF7F8F9B7214DF22550FDF712
:102EA800F3F902214DF22650FDF7EEF9CF214DF24C
:102EB8002750FDF7E9F902214DF22850FDF7E4F912
:102EC800DE214DF22950FDF7DFF902214DF22A509B
:102ED800FDF7DAF9F2214DF22B50FDF7D5F9022171
:102EE8004DF22C50FDF7D0F9FE214DF22D50FDF793
:102EF800CBF903214DF22E50FDF7C6F910214DF202
:102F08002F50FDF7C1F903214DF23050FDF7BCF900
:102F180033214DF23150FDF7B7F903214DF232500C
:102F2800FDF7B2F96D214DF23350FDF7ADF90021EF
:102F38004FF45640FDF7A8F933214DF20160FDF733
:102F4800A3F900214DF20260FDF79EF934214DF2FC
:102F58000360FDF799F900214DF20460FDF794F93B
:102F68003A214DF20560FDF78FF900214DF2066018
:102F7800FDF78AF94A214DF20760FDF785F900212E
:102F88004DF20860FDF780F95C214DF20960FDF70C
:102F98007BF900214DF20A60FDF776F981214DF2A7
:102FA8000B60FDF771F900214DF20C60FDF76CF92B
:102FB800A6214DF20D60FDF767F900214DF20E6074
:102FC800FDF762F9E5214DF20F60FDF75DF901218A
:102FD8004DF21060FDF758F913214DF21160FDF71D
:102FE80053F901214DF21260FDF74EF954214DF2CB
:102FF8001360FDF749F901214DF21460FDF744F91A
:1030080082214DF21560FDF73FF901214DF216605E
:10301800FDF73AF9CA214DF21760FDF735F902219B
:103028004DF21860FDF730F900214DF21960FDF7F7
:103038002BF902214DF21A60FDF726F901214DF214
:103048001B60FDF721F902214DF21C60FDF71CF908
:1030580034214DF21D60FDF717F902214DF21E6073
:10306800FDF712F967214DF21F60FDF70DF90221F6
:103078004DF22060FDF708F984214DF22160FDF73B
:1030880003F902214DF22260FDF7FEF8A4214DF26A
:103098002360FDF7F9F802214DF22460FDF7F4F8FA
:1030A800B7214DF22560FDF7EFF802214DF22660B9
:1030B800FDF7EAF8CF214DF22760FDF7E5F8022188
:1030C8004DF22860FDF7E0F8DE214DF22960FDF7AA
:1030D800DBF802214DF22A60FDF7D6F8F2214DF215
:1030E8002B60FDF7D1F802214DF22C60FDF7CCF8EA
:1030F800FE214DF22D60FDF7C7F803214DF22E6039
:10310800FDF7C2F810214DF22F60FDF7BDF803213D
:103118004DF23060FDF7B8F833214DF23160FDF71C
:10312800B3F803214DF23260FDF7AEF86D214DF290
:103138003360FDF7A9F855214FF47040FDF7A4F866
:10314800AA214FF20100FDF79FF852214FF2020029
:10315800FDF79AF808214FF20300FDF795F80021D2
:103168004FF20400FDF790F8CC214FF43140FDF701
:103178008BF800214BF20110FDF786F805214FF47A
:103188003640FDF781F870214FF43740FDF77CF8A1
:1031980070214BF20170FDF777F801214FF43840A8
:1031A800FDF772F803214BF60100FDF76DF80321D6
:1031B8004BF60200FDF768F803214BF60300FDF714
:1031C80063F802214FF43C40FDF75EF800214BF60E
:1031D8000140FDF759F800214BF60240FDF754F87D
:1031E800D0214FF44940FDF74FF802214CF6011069
:1031F800FDF74AF850214CF60210FDF745F850212A
:103208004CF60310FDF740F850214CF60410FDF77A
:103218003BF800214FF45450FDF736F855214FF490
:103228006850FDF731F84FF48850FCF7F5FF782027
:1032380001F00CFA4FF42450FCF7EEFF01F09BB8B4
:10324800EC4B9B8849F22532934240F0D78047F6F1
:10325800F001E520FDF718F84FF480710120FDF723
:1032680013F84FF4E0610220FDF70EF841F2300147
:103278000320FDF709F800210420FDF705F840F2C6
:1032880002210820FDF700F800210920FCF7FCFFC7
:1032980000210A20FCF7F8FF00210C20FCF7F4FFBE
:1032A80000210D20FCF7F0FF00210F20FCF7ECFFB8
:1032B80000211020FCF7E8FF07211120FCF7E4FFAC
:1032C80000211220FCF7E0FF00211320FCF7DCFFAF
:1032D80000210720FCF7D8FF41F290611020FCF78D
:1032E800D3FF40F227211120FCF7CEFF9D211220A9
:1032F800FCF7CAFF4FF4C8511320FCF7C5FF25217E
:103308002920FCF7C1FF0D212B20FCF7BDFF072169
:103318003020FCF7B9FF40F203313120FCF7B4FF4D
:1033280003213220FCF7B0FF40F206213520FCF7DC
:10333800ABFF08213620FCF7A7FF40F206413720F3
:10334800FCF7A2FF4FF441713820FCF79DFF0721DD
:103358003920FCF799FF40F202613C20FCF794FF0A
:1033680008213D20FCF790FF00215020FCF78CFF3E
:10337800EF215120FCF788FF00215220FCF784FF41
:1033880040F23F115320FCF77FFF4FF427416020A4
:10339800FCF77AFF01216120FCF776FF00216A2003
:1033A800FCF772FF00218020FCF76EFF00218120CE
:1033B800FCF76AFF00218220FCF766FF00218320CA
:1033C800FCF762FF00218420FCF75EFF00218520C6
:1033D800FCF75AFF10219020FCF756FF4FF4C0610C
:1033E8009220FCF751FF40F233110720FCF74CFF05
:1033F80022210020FCF748FF00F0BDBF7D4B9B88D1
:1034080049F22832934240F0F78041F28F01EC20D4
:10341800FCF73AFF41F23421EF20FCF735FF4FF477
:1034280080710120FCF730FF4FF4E0610220FCF7C7
:103438002BFF41F230010320FCF726FF0021042076
:10344800FCF722FF40F202210820FCF71DFF0021B3
:103458000920FCF719FF00210A20FCF715FF0121BC
:103468000C20FCF711FF00210D20FCF70DFF0021B7
:103478000F20FCF709FF00211020FCF705FF0721AA
:103488001120FCF701FF00211220FCF7FDFE0021AE
:103498001320FCF7F9FE01210720FCF7F5FE322086
:1034A80001F0F2F841F290411020FCF7EDFE40F2F5
:1034B80027211120FCF7E8FE322001F0E5F88A21E7
:1034C8001220FCF7E1FE322001F0DEF84FF4D05173
:1034D8001320FCF7D9FE06212920FCF7D5FE0D2183
:1034E8002B20FCF7D1FE322001F0CEF8002120205D
:1034F800FCF7CAFE00212120FCF7C6FE322001F0AD
:10350800C3F800213020FCF7BFFE40F204613120EF
:10351800FCF7BAFE40F205313220FCF7B5FE002177
:103528003520FCF7B1FE40F609413620FCF7ACFE29
:103538004FF401713720FCF7A7FE40F20131382023
:10354800FCF7A2FE40F207713920FCF79DFE00212E
:103558003C20FCF799FE40F60A213D20FCF794FE3A
:10356800322001F091F800215020FCF78DFEEF2168
:103578005120FCF789FE00215220FCF785FE40F21D
:103588003F115320FCF780FE4FF427416020FCF7E1
:103598007BFE01216120FCF777FE00216A20FCF701
:1035A80073FE00218020FCF76FFE00218120FCF7CC
:1035B8006BFE00218220FCF767FE00218320FCF7C8
:1035C80063FE00218420FCF75FFE00218520FCF7C4
:1035D8005BFE10219020FCF757FE4FF4C06192204B
:1035E800FCF752FE40F233110720FCF74DFE00F0C5
:1035F800C2BE00BF34000020CE4B9B8849F2203267
:10360800934240F0AD8000210020FCF73DFE4FF4CE
:1036180080710120FCF738FE4FF4E0610220FCF7CE
:1036280033FE41F230010320FCF72EFE0021042076
:10363800FCF72AFE40F202210820FCF725FE0021B3
:103648000920FCF721FE00210A20FCF71DFE0121BC
:103658000C20FCF719FE00210D20FCF715FE0021B7
:103668000F20FCF711FE322001F00EF840F2011194
:103678000720FCF709FE322001F006F84FF48651C6
:103688001020FCF701FE07211120FCF7FDFD4FF487
:1036980088711220FCF7F8FD4FF430611320FCF715
:1036A800F3FD00212920FCF7EFFD44F210012B2047
:1036B800FCF7EAFD00215020FCF7E6FDEF21512040
:1036C800FCF7E2FD00215220FCF7DEFD40F23F113D
:1036D8005320FCF7D9FD4FF41C516020FCF7D4FDB2
:1036E80001216120FCF7D0FD00216A20FCF7CCFD08
:1036F80000218020FCF7C8FD00218120FCF7C4FDD3
:1037080000218220FCF7C0FD00218320FCF7BCFDCE
:1037180000218420FCF7B8FD00218520FCF7B4FDCA
:1037280010219020FCF7B0FD00219220FCF7ACFDA1
:1037380001219320FCF7A8FD4FF488719520FCF730
:10374800A3FD00219720FCF79FFD00219820FCF79E
:103758009BFD40F273110720FCF796FD00F00BBEAD
:10376800744B9B8849F23132934240F0E58041F234
:103778001401E720FCF788FD4FF480710120FCF765
:1037880083FD4FF400710220FCF77EFD41F2380101
:103798000320FCF779FD40F202210820FCF774FDB4
:1037A80000210920FCF770FD00210A20FCF76CFDC0
:1037B80000210C20FCF768FD00210D20FCF764FDBA
:1037C80000210F20FCF760FD00211020FCF75CFDB4
:1037D80007211120FCF758FD00211220FCF754FDA9
:1037E80000211320FCF750FDC82000F04DFF41F2E6
:1037F80090611020FCF748FD40F227211120FCF7CA
:1038080043FD322000F040FF0C211220FCF73CFD64
:10381800322000F039FF4FF400611320FCF734FD2B
:1038280011212920FCF730FD0B212B20FCF72CFD62
:10383800322000F029FF00212020FCF725FD40F26E
:103848003F112120FCF720FD00213020FCF71CFD52
:103858004FF483713120FCF717FD00213220FCF76B
:1038680013FD4FF401713520FCF70EFD41F20A619A
:103878003620FCF709FD40F207713720FCF704FDFC
:103888004FF483713820FCF7FFFC40F207713920B0
:10389800FCF7FAFC40F202413C20FCF7F5FC40F64C
:1038A8000F413D20FCF7F0FC00215020FCF7ECFC18
:1038B800EF215120FCF7E8FC00215220FCF7E4FC42
:1038C80040F23F115320FCF7DFFC4FF41C516020FD
:1038D800FCF7DAFC01216120FCF7D6FC00216A2004
:1038E800FCF7D2FC00218020FCF7CEFC00218120CF
:1038F800FCF7CAFC00218220FCF7C6FC00218320CB
:10390800FCF7C2FC00218420FCF7BEFC00218520C6
:10391800FCF7BAFC10219020FCF7B6FC4FF4C0610C
:103928009220FCF7B1FC40F233110720FCF7ACFC05
:1039380000F021BD34000020E14B9B8845F208428D
:10394800934240F0A3804FF480710120FCF79CFC67
:103958004FF4E0610220FCF797FC41F230010320AC
:10396800FCF792FC00210420FCF78EFC40F20721B2
:103978000820FCF789FC00210920FCF785FC0021C0
:103988000A20FCF781FC00210C20FCF77DFC0021BB
:103998000D20FCF779FC00210F20FCF775FC1420A2
:1039A80000F072FE41F2B0611020FCF76DFC0121BD
:1039B8001120FCF769FC01211720FCF765FC4FF486
:1039C8009C711220FCF760FC4FF400611320FCF797
:1039D8005BFC09212920FCF757FC09212A20FCF768
:1039E80053FC0021A420FCF74FFC00215020FCF7D9
:1039F8004BFCEF215120FCF747FC00215220FCF73B
:103A080043FC40F23F115320FCF73EFC4FF41C519D
:103A18006020FCF739FC01216120FCF735FC00210E
:103A28006A20FCF731FC00218020FCF72DFC0021E6
:103A38008120FCF729FC00218220FCF725FC0021CD
:103A48008320FCF721FC00218420FCF71DFC0021C9
:103A58008520FCF719FC13219020FCF715FC0021A8
:103A68009220FCF711FC03219320FCF70DFC4FF486
:103A780088719520FCF708FC40F273110720FCF7C9
:103A880003FC322000F000FE00F075BC8C4B9B88D4
:103A980041F20552934240F0158100210720FCF7BE
:103AA800F3FB322000F0F0FD4FF48E711220FCF78A
:103AB800EBFB0121A420FCF7E7FB0F210820FCF712
:103AC800E3FB08210A20FCF7DFFB08210D20FCF7A7
:103AD800DBFB40F207713020FCF7D6FB07213120D1
:103AE800FCF7D2FB40F203613220FCF7CDFB4FF428
:103AF800E0613320FCF7C8FB40F202213420FCF7D8
:103B0800C3FB02213520FCF7BFFB41F60F713620BD
:103B1800FCF7BAFB40F207713720FCF7B5FB002130
:103B28003820FCF7B1FB00213920FCF7ADFB40F24F
:103B380007713A20FCF7A8FB00213B20FCF7A4FB07
:103B480007213C20FCF7A0FB00213D20FCF79CFB53
:103B5800322000F099FD01210720FCF795FB012197
:103B68001720FCF791FB322000F08EFD4FF4BD5179
:103B78001020FCF789FB40F217211120FCF784FB89
:103B88004FF48F711220FCF77FFB4FF47061132004
:103B9800FCF77AFB00212A20FCF776FB0A21292072
:103BA800FCF772FB4FF49F711220FCF76DFB0021AC
:103BB8005020FCF769FBEF215120FCF765FB002141
:103BC8005220FCF761FB40F23F115320FCF75CFBED
:103BD8004FF41C516020FCF757FB01216120FCF7D2
:103BE80053FB00216A20FCF74FFB00218020FCF7E3
:103BF8004BFB00218120FCF747FB00218220FCF7CA
:103C080043FB00218320FCF73FFB00218420FCF7C5
:103C18003BFB00218520FCF737FB13219020FCF7A4
:103C280033FB4FF440719220FCF72EFB05219320C3
:103C3800FCF72AFB00219520FCF726FB00219720A2
:103C4800FCF722FB00219820FCF71EFB4FF4807143
:103C58000120FCF719FB4FF4E0610220FCF714FB8C
:103C680041F238010320FCF70FFB00210420FCF788
:103C78000BFB00210C20FCF707FB00210F20FCF7B1
:103C880003FB00212020FCF7FFFA00212120FCF78C
:103C9800FBFA21210720FCF7F7FA142000F0F4FCC6
:103CA80061210720FCF7F0FA142000F0EDFC40F247
:103CB80073110720FCF7E8FA142000F0E5FC5AE33A
:103CC80034000020EF4B9B884BF20552934240F0A2
:103CD800028100210020FCF7D7FA00210020FCF720
:103CE800D3FA00210020FCF7CFFA00210020FCF7CE
:103CF800CBFA0121A420FCF7C7FA142000F0C4FC79
:103D08004FF41C516020FCF7BFFA40F20221082052
:103D1800FCF7BAFA4FF405713020FCF7B5FA43F214
:103D280015713120FCF7B0FA40F204613220FCF73B
:103D3800ABFA40F616613320FCF7A6FA42F21121DD
:103D48003420FCF7A1FA4FF4A8513520FCF79CFA6F
:103D580048F207513620FCF797FA41F2074137201D
:103D6800FCF792FA41F203413820FCF78DFA202142
:103D78003920FCF789FA1A219020FCF785FA0021EE
:103D88001020FCF781FA07211120FCF77DFA0021A9
:103D98001220FCF779FA00211320FCF775FA142099
:103DA80000F072FC4FF4E6611020FCF76DFA40F267
:103DB80037111120FCF768FA142000F065FC4FF465
:103DC800DC711220FCF760FA142000F05DFC4FF45F
:103DD80070611320FCF758FA80212A20FCF754FA66
:103DE80048212920FCF750FA142000F04DFC4FF42C
:103DF80080710120FCF748FA4FF4E0610220FCF7DB
:103E080043FA41F238010320FCF73EFA40F202215E
:103E18000820FCF739FA00210A20FCF735FA0021BE
:103E28000C20FCF731FA00210D20FCF72DFA302187
:103E38000E20FCF729FA00215020FCF725FAEF2183
:103E48005120FCF721FA00215220FCF71DFA40F21C
:103E58003F115320FCF718FA4FF41C516020FCF76F
:103E680013FA01216120FCF70FFA00216A20FCF700
:103E78000BFA11219020FCF707FA4FF4C061922049
:103E8800FCF702FA40F202419320FCF7FDF9022107
:103E98009420FCF7F9F9142000F0F6FB0121072023
:103EA800FCF7F2F9142000F0EFFB61210720FCF782
:103EB800EBF940F273110720FCF7E6F90021202006
:103EC800FCF7E2F900212120FCF7DEF9222100208D
:103ED800FCF7DAF94FE26B4B9B884CF205529342A0
:103EE80040F0D28000210020FCF7CEF9002100200C
:103EF800FCF7CAF9142000F0C7FB00210020FCF7EA
:103F0800C3F900210020FCF7BFF900210020FCF7CD
:103F1800BBF900210020FCF7B7F90121A420FCF728
:103F2800B3F9142000F0B0FB4FF41C516020FCF7EB
:103F3800ABF940F606010820FCF7A6F940F2037138
:103F48003020FCF7A1F901213120FCF79DF904216B
:103F58003220FCF799F94FF481713320FCF794F97A
:103F68004FF440713420FCF78FF940F203113520EB
:103F7800FCF78AF91F213620FCF786F940F2037115
:103F88003720FCF781F901213820FCF77DF904215D
:103F98003920FCF779F915219020FCF775F94FF4D1
:103FA80082611020FCF770F940F247211120FCF7DC
:103FB8006BF94FF4DE711220FCF766F94FF460617B
:103FC8001320FCF761F9782000F05EFB4FF4807154
:103FD8000120FCF759F94FF400710220FCF754F95D
:103FE80041F230010320FCF74FF908210A20FCF7C1
:103FF8004BF900210C20FCF747F920210E20FCF793
:1040080043F900210F20FCF73FF900212020FCF79D
:104018003BF900212120FCF737F93D212A20FCF744
:1040280033F9142000F030FB2D212920FCF72CF95E
:1040380000215020FCF728F94DF2EF015120FCF740
:1040480023F900215220FCF71FF940F23F115320B9
:10405800FCF71AF900216120FCF716F900216A2003
:10406800FCF712F94FF440719220FCF70DF9052185
:104078009320FCF709F94FF480710720FCF704F945
:1040880079E100BF34000020C94B9B8844F23152CB
:10409800934240F0BA8001210020FCF7F5F80A208D
:1040A80000F0F2FA41F228611020FCF7EDF80E2139
:1040B8001220FCF7E9F840F639211320FCF7E4F860
:1040C8000A2000F0E1FA40211120FCF7DDF8502128
:1040D8001520FCF7D9F80A2000F0D6FA1E21122084
:1040E800FCF7D2F80A2000F0CFFA4FF4B1511020B3
:1040F800FCF7CAF842F639211320FCF7C5F80A2064
:1041080000F0C2FA4FF480710120FCF7BDF84FF4BB
:1041180040710220FCF7B8F841F238010320FCF79F
:10412800B3F840F202210820FCF7AEF808210A2073
:10413800FCF7AAF800213020FCF7A6F840F202416B
:104148003120FCF7A1F84FF483713220FCF79CF87A
:1041580040F203513320FCF797F84FF48271342072
:10416800FCF792F840F201313520FCF78DF840F267
:1041780007713620FCF788F840F205313720FCF744
:1041880083F84FF402713820FCF77EF840F60B7183
:104198003920FCF779F802214120FCF775F84FF433
:1041A8001C516020FCF770F801216120FCF76CF8C5
:1041B8004FF404719020FCF767F84FF48571922052
:1041C800FCF762F804219320FCF75EF84FF4807145
:1041D800A020FCF759F801210720FCF755F8212108
:1041E8000720FCF751F823210720FCF74DF833216D
:1041F8000720FCF749F840F233110720FCF744F890
:104208000021A020FCF740F8B5E0694B9B8844F2F8
:104218003552934240F0AF8030211520FCF734F836
:1042280010219A20FCF730F820211120FCF72CF8F7
:1042380043F228411020FCF727F802211220FCF74E
:1042480023F841F238011320FCF71EF8282000F06B
:104258001BFA12211220FCF717F8282000F014FA94
:1042680043F220411020FCF70FF843F238011320E5
:10427800FCF70AF8462000F007FA00213020FCF786
:1042880003F840F202413120FBF7FEFF40F207310C
:104298003220FBF7F9FF4FF441713320FBF7F4FFAD
:1042A80004213420FBF7F0FF40F201413520FBF7F1
:1042B800EBFF40F207713620FBF7E6FF40F20531CD
:1042C8003720FBF7E1FF4FF4C2613820FBF7DCFF32
:1042D8004FF4C2613920FBF7D7FF4FF480710120FA
:1042E800FBF7D2FF4FF440710220FBF7CDFF41F2FC
:1042F80030010320FBF7C8FF40F608010820FBF750
:10430800C3FF08210A20FBF7BFFF4FF41C516020B0
:10431800FBF7BAFF01216120FBF7B6FF4FF49F714D
:104328009020FBF7B1FF4FF480719220FBF7ACFFB0
:104338004FF480719320FBF7A7FF4FF44051A02062
:10434800FBF7A2FF1021A320FBF79EFF0121072006
:10435800FBF79AFF21210720FBF796FF232107206F
:10436800FBF792FF33210720FBF78EFF40F2331152
:104378000720FBF789FF0020FCF776FB01233B7140
:1043880003237B710023BB7102233B600023FB7175
:104398003B461946074800F0ADFB0221054800F0EE
:1043A80038FC002000F008F800BF8837BD4680BD03
:1043B800340000200004024080B584B000AF0346FA
:1043C800FB800023FB60214B1B88BB601F4B5B8875
:1043D8001A46BB6802FB03F3BB601C4B9B8846F67E
:1043E800040293421AD1194B9B79012B16D1174B12
:1043F80000229A71154B2A225A81144B2B229A813A
:1044080000210020FBF7A8FF104B01229A710F4BE7
:104418002B225A810D4B2A229A8103E00021002089
:10442800FBF79AFFFBF75CFF0023FB6005E0084AF7
:10443800FB885380FB680133FB60FA68BB689A42CB
:10444800F5D300BF00BF1037BD4680BD3400002043
:10445800FEFF076090B585B000AF044608461146D8
:104468001A462346FB800346BB800B46FB70134667
:10447800BB70BB887B81BB78DB08DBB21A46BB7894
:1044880003F00703DBB2002B14BF01230023DBB2C8
:104498001344DAB2BB785B08DBB212FB03F37B721E
:1044A800FB78203BFB7000237B7369E0BB780C2B07
:1044B8000BD1FA78797B384813465B0013449B008C
:1044C80003440B441B78FB7319E0BB78102B08D10D
:1044D800FA787B7B314912010A4413441B78FB7339
:1044E8000DE0BB78182B50D1FA78797B2C4813460D
:1044F800DB0013449B0003440B441B78FB7300232D
:10450800BB7335E097F90F30002B07DA254B1A8873
:10451800B988FB881846FCF7DBF90AE097F82030E1
:10452800002B06D1204B1A88B988FB881846FCF75F
:10453800CFF9FB7B5B00FB73BB880133BB801B4B54
:104548005B88BA889A4222D2BA887B89D21ABB7809
:104558009A420AD17B89BB80FB880133FB80134BCD
:104568001B88FA889A4207D312E0BB7B0133BB73DE
:10457800BB7B072BC6D900E000BF7B7B01337B7375
:104588007A7B7B7A9A4291D302E000BF00E000BFB9
:104598001437BD4690BD00BF145100088855000867
:1045A800785B000830000020000000203400002064
:1045B80090B587B002AF0446084611461A4623460E
:1045C800FB800346BB800B467B8013463B80FB8801
:1045D800FB737A88FB8813447B803A88BB88134432
:1045E8003B8024E0FA887B889A4207D3FB7BFB80D8
:1045F80097F820309AB2BB881344BB80BA883B88AE
:104608009A421DD27B6A1A7897F82030B988F888C0
:1046180000240094FFF71EFF97F820305B08DBB2F8
:104628009AB2FB881344FB807B6A01337B627B6A06
:104638001B787E2B05D87B6A1B781F2BD2D800E00D
:1046480000BF00BF1437BD4690BD000080B582B0E2
:1046580000AF78600B4A7B68D3620A4B094ADB6A71
:1046680053620121074800F01DFD00BF054B5B6A3E
:10467800002BFBD10021034800F014FD00BF0837D0
:10468800BD4680BD0004004080B584B000AF7860AE
:104698000023FB6006E04FF47A70FFF7D7FFFB6852
:1046A8000133FB60FB687A689A42F4D800BF00BF08
:1046B8001037BD4680BD000080B582B000AFC02372
:1046C8003B6002233B7103237B710123BB710023F1
:1046D800FB713B461946084800F00CFA04220621F3
:1046E800054800F0A5FA04220721034800F0A0FAC3
:1046F80000BF0837BD4680BD0004024080B584B0C5
:1047080000AF0023BB804BF6FF73FB8000233B8187
:104718004FF480637B814FF48043BB813B4619464D
:10472800034800F0CFFA00BF1037BD4680BD00BF78
:104738000054004080B500AFFFF7BEFFFFF7DEFF73
:1047480000BF80BD80B500AF0121024800F07CFBAE
:1047580000BF80BD00540040002103E00A4B5B58B5
:104768004350043109480A4B42189A42F6D3094A81
:1047780002E0002342F8043B074B9A42F9D300F0C9
:104788000FF8FBF72BFD7047DC68000800000020DD
:10479800140000201400002044000020FEE7000060
:1047A80080B500AF164BD3F88830154A43F4700330
:1047B800C2F88830134B1B68124A43F00103136098
:1047C800104B00229A600F4B1B680E4A23F084732B
:1047D80023F4803313600B4B0B4A5A60094B1B6858
:1047E800084A23F480231360064B0022DA6000F0A5
:1047F8000DF8034B4FF000629A6000BF80BD00BF08
:1048080000ED00E0003802401030002480B483B08E
:1048180000AF00237B6000233B60364B1B68354AA2
:1048280043F480331360334B1B6803F400333B605D
:104838007B6801337B603B68002B03D17B68B3F551
:10484800A04FF0D12B4B1B6803F40033002B02D090
:1048580001233B6001E000233B603B68012B42D110
:10486800244B1B6C234A43F080531364224B1B6870
:10487800214A43F4404313601E4B1E4A9B689360D1
:104888001C4B9B681B4A43F400439360194B9B687D
:10489800184A43F4A0539360164B184A5A60154BB4
:1048A8001B68144A43F08073136000BF114B1B68E8
:1048B80003F00073002BF9D0114B40F205721A6017
:1048C8000C4B9B680B4A23F003039360094B9B68CE
:1048D800084A43F00203936000BF064B9B6803F04D
:1048E8000C03082BF9D100BF0C37BD465DF8047BDB
:1048F800704700BF0038024000700040085440076D
:10490800003C024080B487B000AF786000237B6130
:1049180000233B610023FB604FF020427B681B684B
:1049280052F823307B617A695A4B13407B617B686C
:104938005A687B689B681A437B68DB681A437B6804
:104948001B691A437B685B691A437B689B691A4336
:104958007B68DB691A437B681B6A1A437B685B6A5E
:104968001A437B689B6A1A437B68DB6A1A437B6835
:104978001B6B13437A6913437B614FF020417B68BB
:104988001B687A6941F823207B689B68082B0DD146
:104998004FF020427B681B6852F823204FF02041DB
:1049A8007B681B6842F0400241F823204FF0204208
:1049B8007B681B68013352F823303B613B6903F085
:1049C80040433B617B685B6B1A687B685B6B5B6829
:1049D8001B011A437B685B6B9B681B021A437B684D
:1049E8005B6BDB681B041A437B685B6B1B691B05ED
:1049F8001A437B685B6B5B691B061A437B685B6BBE
:104A08009B6913433A6913433B614FF020417B682C
:104A18001B6801333A6941F823207B68DB6AB3F5E8
:104A2800804F29D11C4A7B681B6852F82330FB60F1
:104A3800FA681A4B1340FB607B689B6B1A687B68AB
:104A48009B6B5B681B011A437B689B6B9B681B0213
:104A58001A437B689B6BDB681B041A437B689B6B60
:104A68009B691343FA681343FB600B497B681B6817
:104A7800FA6841F8232006E0074A7B681B686FF054
:104A8800704142F8231000BF1C37BD465DF8047B17
:104A9800704700BF8000F7FF040100A00000F0CFBE
:104AA80080B483B000AF78600B46FB70FB78002BB6
:104AB8000CD04FF020427B6852F823304FF0204151
:104AC80043F001027B6841F823200BE04FF02042BD
:104AD8007B6852F823204FF02041054B13407A6839
:104AE80041F8223000BF0C37BD465DF8047B7047A3
:104AF800FEFF0F0080B487B000AF786039600023F4
:104B08007B6100233B610023FB6000237B6176E02F
:104B180001227B6902FA03F33B613B681B683A692F
:104B28001340FB60FA683B699A4265D17B681A6852
:104B38007B695B00032101FA03F3DB431A407B68BE
:104B48001A607B681A683B681B7919467B695B00A9
:104B580001FA03F31A437B681A603B681B79012B3F
:104B680003D03B681B79022B2ED17B689A687B693E
:104B78005B00032101FA03F3DB431A407B689A6068
:104B88007B689A683B685B7919467B695B0001FA28
:104B980003F31A437B689A607B685A687B699BB207
:104BA800194601238B40DB431A407B685A607B68B7
:104BB8005B683A68927911467A6992B201FA02F210
:104BC80092B21A437B685A607B68DA687B699BB249
:104BD8005B00032101FA03F3DB431A407B68DA60C8
:104BE8007B68DA683B68DB7919467B695B0001FA08
:104BF80003F31A437B68DA607B6901337B617B6965
:104C08000F2B85D900BF00BF1C37BD465DF8047B5C
:104C1800704780B483B000AF78600B467B807A8899
:104C28007B689A6100BF0C37BD465DF8047B70470E
:104C380080B485B000AF78600B467B8013467B70EC
:104C48000023FB600023BB607A787B8803F00703AE
:104C58009B0002FA03F3FB607B88DB089BB21A46D1
:104C68007B68083253F822207B8803F007039B00F7
:104C78000F2101FA03F3DB437988C90889B2084692
:104C880002EA03017B6800F1080243F822107B88DE
:104C9800DB089BB21A467B68083253F82230FA6860
:104CA8001343BB607B88DB089BB21A467B680832DB
:104CB800B96843F8221000BF1437BD465DF8047B7D
:104CC8007047000080B58AB000AF78603960002373
:104CD800FB8400237B840423BB84574BFB617B68E4
:104CE8009B88FB84FB8C23F03F03FB8407F10C03B8
:104CF800184600F0C9F87B69FB61FB694F4AA2FBC3
:104D080003239B0C7B84FA8C7B8C1343FB847B688A
:104D1800FA8C9A807B681B889BB223F001039AB2B5
:104D28007B681A800023FB843B681B68444A9342D3
:104D380015D83B681B685B00FA69B2FBF3F3BB84C8
:104D4800BB8C032B01D80423BB84FA8CBB8C134384
:104D5800FB847B8C01339AB27B681A8440E03B6801
:104D6800DB884BF6FF72934209D13B681A681346F9
:104D78005B001344FA69B2FBF3F3BB840EE03B68B3
:104D88001A6813469B0013449A001344FA69B2FB4D
:104D9800F3F3BB84BB8C43F48043BB84BB8CC3F369
:104DA8000B03002B03D1BB8C43F00103BB84BA8CEB
:104DB800FB8C13439BB26FEA43436FEA5343FB8474
:104DC8007B8C4FF4967202FB03F31E4A82FB03129C
:104DD8009211DB17D31A9BB201339AB27B681A84FB
:104DE8007B68FA8C9A837B681B889BB243F001032B
:104DF8009AB27B681A807B681B88FB84FB8C23F43F
:104E0800816323F00203FB843B689A883B685B89D3
:104E180013439AB2FB8C1343FB847B68FA8C1A8089
:104E28003B689A893B681B8913439AB27B681A814D
:104E380000BF2837BD4680BD00127A0083DE1B43C1
:104E4800A0860100D34D621080B483B000AF7860B3
:104E58000B46FB70FB78002B08D07B681B889BB245
:104E680043F480739AB27B681A8007E07B681B88DA
:104E78009BB223F480739AB27B681A8000BF0C3708
:104E8800BD465DF8047B704780B489B000AF786098
:104E98000023BB6100237B610023FB6102233B618C
:104EA8000023FB600223BB604A4B9B6803F00C03A2
:104EB800BB61BB69082B11D0BB69082B44D8BB69FF
:104EC800002B03D0BB69042B04D03DE07B68424A29
:104ED8001A603DE07B68414A1A6039E03D4B5B68E7
:104EE8009B0D03F00103FB603A4B5B6803F03F0343
:104EF800BB60FB68002B0CD0384ABB68B2FBF3F3ED
:104F0800344A52689209C2F3080202FB03F3FB61B8
:104F18000BE0314ABB68B2FBF3F32E4A52689209A0
:104F2800C2F3080202FB03F3FB612A4B5B681B0C0C
:104F380003F0030301335B003B61FA693B69B2FB91
:104F4800F3F27B681A6003E07B68234A1A6000BFAB
:104F5800204B9B6803F0F003BB61BB691B09BB6175
:104F68001F4ABB6913441B78DBB27B617B681A68F4
:104F78007B69DA407B685A60164B9B6803F4E05300
:104F8800BB61BB699B0ABB61154ABB6913441B78AB
:104F9800DBB27B617B685A687B69DA407B689A6020
:104FA8000C4B9B6803F46043BB61BB695B0BBB6143
:104FB8000B4ABB6913441B78DBB27B617B685A6878
:104FC8007B69DA407B68DA6000BF2437BD465DF84C
:104FD800047B7047003802400024F40000127A0075
:104FE8000400002080B483B000AF78600B46FB70EB
:104FF800FB78002B06D00A4B1A6B09497B681343D0
:105008000B6306E0064B1A6B7B68DB4304491340CD
:105018000B6300BF0C37BD465DF8047B704700BFCB
:105028000038024080B483B000AF78600B46FB7054
:10503800FB78002B06D00A4B9A6B09497B6813430F
:105048008B6306E0064B9A6B7B68DB43044913408D
:105058008B6300BF0C37BD465DF8047B704700BF0B
:105068000038024080B483B000AF78600B46FB7014
:10507800FB78002B06D00A4B1A6C09497B6813434E
:105088000B6406E0064B1A6C7B68DB43044913404B
:105098000B6400BF0C37BD465DF8047B704700BF4A
:1050A8000038024080B483B000AF78600B46FB70D4
:1050B800FB78002B08D07B681B889BB243F0010368
:1050C8009AB27B681A8007E07B681B889BB223F042
:1050D80001039AB27B681A8000BF0C37BD465DF8A1
:1050E800047B7047F8B500BFF8BC08BC9E46704703
:0C50F800F8B500BFF8BC08BC9E4670472D
:1051040048656C6C6F2C20576F726C642100000032
:10511400000000000000000000000000000000008B
:105124003F4000000000000000003000400030005C
:105134004000000009000BC03D000BC03D00090009
:1051440018C024407FE0224031800000180024C0B1
:105154001B000D803240018003801C4027401C80CE
:105164000740004010006000000000000000000044
:105174000000000000001F8020404020000040206C
:1051840020401F8000000000090006001F80060068
:1051940009000000040004003F8004000400000033
:1051A4000010006000000000000000000400040083
:1051B400040004000400000000000040000000009F
:1051C40000000000002001C006003800400000007C
:1051D4001F802040204020401F800000000010401D
:1051E4003FC000400000000018C02140224024407D
:1051F4001840000010802040244024401B80000000
:1052040002000D0011003FC0014000003C8024401A
:1052140024402440238000001F8024402440344044
:10522400038000003000200027C038002000000068
:105234001B802440244024401B8000001C0022C00A
:10524400224022401F8000000000000008400000AF
:1052540000000000000000000460000000000000E6
:10526400000004000A0011002080404009000900E9
:1052740009000900090000000000404020801100DE
:105284000A00040018002000234024001800000035
:105294001F802040274029401F400000004007C0D5
:1052A40039000F0001C0004020403FC0244024408A
:1052B4001B8000001F8020402040204030800000E0
:1052C40020403FC0204020401F80000020403FC0BD
:1052D40024402E4030C0000020403FC024402E0017
:1052E400300000000F001080204022403380020074
:1052F40020403FC0040004003FC020402040204024
:105304003FC02040204000000060202020203FC0FB
:105314002000200020403FC024400B0030C020402B
:1053240020403FC020400040004000C03FC03C003F
:1053340003C03C003FC0000020403FC00C4023009D
:105344003FC020001F802040204020401F800000DC
:1053540020403FC024402400180000001F8021404A
:10536400214020E01FA0000020403FC02440260030
:1053740019C0004018C0244024402240318000005D
:10538400300020403FC020403000000020003F801B
:10539400004000403F80200020003E0001C0070084
:1053A40038002000380007C03C0007C03800000067
:1053B400204039C0060039C0204000002000384099
:1053C40007C0384020000000304021C0264038404B
:1053D40020C00000000000007FE0402040200000CA
:1053E400000070000C00038000400000000040201A
:1053F40040207FE00000000000002000400020006A
:105404000000000000100010001000100010001038
:1054140000000000400000000000000000000280C6
:105424000540054003C0004020003FC00440044044
:105434000380000000000380044004400640000094
:1054440000000380044024403FC00040000003806B
:105454000540054003400000000004401FC02440F4
:1054640024402000000002E00550055006500420AE
:1054740020403FC00440040003C00040000004403A
:1054840027C000400000000000100010041027E0B6
:105494000000000020403FC00140070004C0044059
:1054A400204020403FC000400040000007C00400EE
:1054B40007C0040003C00000044007C00440040007
:1054C40003C0004000000380044004400380000047
:1054D400041007F00450044003800000000003801F
:1054E4000440045007F00010044007C002400400C8
:1054F40004000000000006400540054004C0000010
:10550400000004001F8004400040000004000780E5
:105514000040044007C000400400070004C00180AC
:1055240006000400060001C0070001C006000000D8
:10553400044006C0010006C0044000000410071027
:1055440004E00180060004000000044005C0064099
:10555400044000000000000004007BE04020000044
:10556400000000000000FFF00000000000004020E8
:105574007BE00400000000004000800040002000A8
:1055840020004000000000000000000000000000B7
:10559400000000000000000000001FCC000C000010
:1055A4000000000000000800300060000800300027
:1055B40060000000022003FC1E20022003FC1E20C9
:1055C4000220000000000E1811043FFF10840C7824
:1055D400000000000F0010840F3800C00778188402
:1055E4000078000000780F8410C411240E9800E4A1
:1055F400008400080800680070000000000000003B
:105604000000000000000000000007E0181820045B
:1056140040020000000040022004181807E00000C7
:10562400000000000240024001800FF001800240AF
:10563400024000000080008000800FF8008000809D
:10564400008000000001000D000E000000000000BA
:1056540000000000000000800080008000800080C6
:10566400008000800000000C000C0000000000001E
:105674000000000000000006001800600180060021
:1056840018002000000007F008081004100408089F
:1056940007F000000000080408041FFC00040004D4
:1056A4000000000000000E0C10141024104411849B
:1056B4000E0C000000000C181004110411041288D0
:1056C4000C700000000000E00320042408241FFCE8
:1056D4000024000000001F98108411041104108895
:1056E40010700000000007F00888110411041888E5
:1056F4000070000000001C00100010FC13001C00CF
:105704001000000000000E3811441084108411446D
:105714000E38000000000700088C1044104408886C
:1057240007F00000000000000000030C030C000060
:10573400000000000000000000010106000000005D
:10574400000000000000008001400220041008084E
:105754001004000002200220022002200220022065
:105764000220000000001004080804100220014078
:105774000080000000000E001200100C106C10805D
:105784000F00000003E00C1813E4142417C40828C5
:1057940007D000000004003C03C41C40074000E4A0
:1057A400001C000410041FFC1104110411040E88D1
:1057B4000070000003E00C1810041004100410081A
:1057C4001C10000010041FFC10041004100408082E
:1057D40007F0000010041FFC1104110417C4100486
:1057E4000818000010041FFC1104110017C0100059
:1057F4000800000003E00C181004100410441C7886
:105804000040000010041FFC1084008000801084FD
:105814001FFC10040000100410041FFC10041004EA
:105824000000000000030001100110011FFE100021
:105834001000000010041FFC110403801464181CE1
:105844001004000010041FFC1004000400040004F1
:10585400000C000010041FFC1F0000FC1F001FFCB4
:105864001004000010041FFC0C04030000E01018D6
:105874001FFC100007F008081004100410040808A6
:1058840007F0000010041FFC1084108010801080AA
:105894000F00000007F0081810241024101C080A38
:1058A40007F2000010041FFC1104110011C0113094
:1058B4000E0C000400000E1C11041084108410440B
:1058C4001C3800001800100010041FFC1004100005
:1058D4001800000010001FF8100400040004100455
:1058E4001FF8100010001E0011E0001C007013804F
:1058F4001C0010001FC0103C00E01F0000E0103C22
:105904001FC000001004180C163401C001C0163466
:10591400180C100410001C00130400FC13041C00D9
:10592400100000000804101C1064108413041C04EC
:10593400101800000000000000007FFE400240023A
:1059440040020000000030000C0003800060001CD6
:105954000003000000004002400240027FFE0000FD
:105964000000000000000000200040004000400053
:1059740020000000000100010001000100010001FD
:105984000001000100004000400020000000000071
:105994000000000000000098012401440144014477
:1059A40000FC000410001FFC0088010401040088AE
:1059B400007000000000007000880104010401046C
:1059C4000088000000000070008801040104110830
:1059D4001FFC0004000000F8014401440144014498
:1059E40000C800000000010401040FFC11041104AC
:1059F40011001800000000D601290129012901C95C
:105A04000106000010041FFC0084010001000104D1
:105A140000FC000400000104190419FC0004000443
:105A2400000000000000000300010101190119FE3B
:105A34000000000010041FFC0024004001B4010C0D
:105A4400010400000000100410041FFC0004000402
:105A540000000000010401FC0104010001FC010438
:105A6400010000FC010401FC0084010001000104A8
:105A740000FC0004000000F8010401040104010416
:105A840000F80000010101FF008501040104008801
:105A9400007000000000007000880104010401058A
:105AA40001FF00010104010401FC00840104010060
:105AB40001800000000000CC012401240124012401
:105AC4000198000000000100010007F8010401042E
