:020000040800F2
:1000000000000220CD0100081102000811020008C2
:10001000110200081102000811020008000000008F
:1000200000000000000000000000000011020008B5
:10003000110200080000000011020008110200086F
:100040001102000811020008110200081102000844
:100050001102000811020008110200081102000834
:100060001102000811020008110200081102000824
:100070001102000811020008110200081102000814
:100080001102000811020008110200081102000804
:1000900011020008110200081102000811020008F4
:1000A00011020008110200081102000811020008E4
:1000B00011020008110200081102000811020008D4
:1000C00011020008110200081102000811020008C4
:1000D00011020008110200081102000811020008B4
:1000E00011020008110200081102000811020008A4
:1000F0001102000811020008110200081102000894
:100100001102000811020008110200081102000883
:100110001102000811020008110200081102000873
:100120001102000811020008110200081102000863
:100130001102000811020008110200081102000853
:100140001102000811020008110200081102000843
:100150001102000811020008110200081102000833
:100160001102000811020008110200081102000823
:100170001102000811020008110200081102000813
:08018000110200081102000841
:1001880010B5054C237833B9044B13B10448AFF3C9
:1001980000800123237010BD000000200000000033
:1001A8000803000808B5034B1BB103490348AFF324
:1001B800008008BD000000000400002008030008BB
:1001C800FEE70000002103E00A4B5B58435004316E
:1001D80009480A4B42189A42F6D3094A02E000231A
:1001E80042F8043B074B9A42F9D300F00FF8FFF7A7
:1001F800E7FF7047280300080000002000000020E7
:10020800000000201C000020FEE70000364AD2F85B
:10021800883043F47003C2F88830344B1A680021E0
:1002280042F001021A6099601A6822F0847222F47E
:1002380080321A602E4A5A601A6882B022F48022EC
:100248001A60D960009101911A6842F480321A60EC
:100258001A6802F400320192009A01320092019A5F
:100268001AB9009AB2F5A04FF2D11B6813F4003303
:1002780018BF01230193019B012B2ED11B4B1D4954
:100288001A6C42F080521A640A6842F440420A60CA
:100298009A689A609A6842F400429A609A6842F4AE
:1002A800A0529A60144A5A601A6842F080721A6022
:1002B8001A689201FCD5114A40F2057111609A68DA
:1002C80022F003029A609A6842F002029A60074A92
:1002D800936803F00C03082BFAD1034B4FF000622C
:1002E8009A6002B0704700BF00ED00E0003802409D
:1002F800103000240070004008544007003C0240C1
:10030800F8B500BFF8BC08BC9E467047F8B500BFFA
:08031800F8BC08BC9E467047CA
:04032000AD01000823
:040324008901000843
:04000005080001CD21
:00000001FF
